:100000000C94E8070C9410080C9410080C94291711
:100010000C9456170C9483170C9410080C94100829
:100020000C9410080C94CF190C9410080C94A31D78
:100030000C9410080C9410080C9410080C941008E0
:100040000C94E02F0C9410080C94182D0C944A2D4D
:100050000C9410080C9410080C9410080C9471293E
:100060000C94A62A0C941008636C6F7365204C6F77
:100070006F70206F6E203F203A2000616273656EC2
:10008000636F646572636F756E74657266656564CF
:1000900072617465203A2000566F6C746167652048
:1000A0003A2000456E636F64657220436F756E740D
:1000B000203A200050756C736520436F756E742074
:1000C0003A20005072696E7465722068616C7465C4
:1000D000642E206B696C6C28292063616C6C6564EC
:1000E00021006F6B00526573656E643A2000436FA8
:1000F0006D6D616E64204E6F742042652073757063
:10010000706F727465642120506C6561736520495D
:100110006E70757420416761696E212000436861CB
:100120006E6765205374657020436F756E7420444C
:10013000697221004368616E6765205374657020A1
:1001400044697221004368616E676520436F756E74
:1001500074204469722100536574205365747020C3
:10016000456E636564657220466163746F72005307
:1001700065742053657470205374657070657220C7
:10018000466163746F720053657420585858204656
:10019000656564726174652120004D616E75616CE6
:1001A0002050494420436F6D7075746520202000F5
:1001B0004368616E67652054617267657444697253
:1001C00020200073657420746172676574207370F9
:1001D00065656420007072696E7420504944212066
:1001E0000053657420504944212000566F6C74619F
:1001F0006765206973203A200053657420566F6C40
:100200007461676520210044697361626C65204DEB
:100210006F746F722000436C6F7365204C6F6F704A
:10022000207374617465004368616E676520636C58
:100230006F7365206C6F6F7020737461746520003C
:1002400052657365742076656C6F73697479206389
:10025000616C63756C6174696F6E3A2000436F6DF9
:100260006D616E64204E6F742042652073757070EE
:100270006F727465642120506C6561736520496EEE
:1002800070757420416761696E212000416E616E56
:1002900061732073746F7070656420647565207479
:1002A0006F206572726F72732E20466978207468B1
:1002B00065206572726F7220616E642075736520AF
:1002C0004D39393920746F20726573746172742EE0
:1002D000202854656D70657261747572652069734C
:1002E0002072657365742E205365742069742061D3
:1002F000667465722072657374617274696E6729C1
:10030000004E6F204C696E65204E756D62657220DF
:100310007769746820636865636B73756D2C204C16
:10032000617374204C696E653A20004E6F204368FB
:1003300065636B73756D2077697468206C696E6591
:10034000206E756D6265722C204C617374204C694F
:100350006E653A2000636865636B73756D206D6927
:10036000736D617463682C204C617374204C696EEA
:10037000653A20004C696E65204E756D626572208D
:100380006973206E6F74204C617374204C696E65C4
:10039000204E756D6265722B312C204C6173742078
:1003A0004C696E653A20004D313130004A756E203F
:1003B0002034203230313600436F6D70696C6564D3
:1003C0003A2000284461726B2C20416E616E61738B
:1003D0002900207C20417574686F723A20004A75AC
:1003E0006E20203420323031362031393A34333ADD
:1003F000353900204C6173742055706461746564F4
:100400003A2000576174636820446F6720726573F7
:1004100065742100506F776572204661696C757252
:100420006520446574656374696F6E2052657365F9
:100430007421004F75747369646520526573657427
:100440002100506F776572204F6E2052657365747E
:1004500021006563686F3A004572726F723A004816
:10046000617264636F6465642044656661756C7471
:100470002053657474696E6773204C6F61646564A2
:100480000053746F7265642073657474696E67736A
:1004900020726574726965766564004D3639206333
:1004A000616E206368616E676520537465707320A8
:1004B000636F756E74732020646972656374696F0D
:1004C0006E2E005468652053746570436F756E74AA
:1004D00044495220697320004D36382063616E20F4
:1004E0006368616E67652020537465707065722063
:1004F00020646972656374696F6E2E0054686520AC
:100500005374657044697220697320004D3637203A
:1005100063616E206368616E67652074686520455D
:100520006E636F64657220436F756E7420646972C8
:10053000656374696F6E2E0054686520456E636F45
:10054000646572436F756E7444495220697320006C
:100550004D3636205300204100205800204A004DDF
:1005600036352053002044002049004D36302050BD
:10057000004D36302020536574205049442050618E
:1005800072616D65746572732021004D353620539C
:100590000031203220616E64203420697320616C48
:1005A0006C6F776564206F6E6C79004D3536202056
:1005B0004368616E676520456E636F6465722053A2
:1005C0007562646976696465202C52657365742070
:1005D0004E656564656421004D35312053004D350D
:1005E0003120204368616E676520537065656446FD
:1005F0006163746F72A3A12100302E392E312E3128
:100600000056657273696F6E3A2000687474707377
:100610003A2F2F6769746875622E636F6D2F44617E
:10062000726B2D4775616E2F416E616E617300555F
:10063000524C3A2000416E616E6173204D657263C9
:10064000757279004D616368696E65204E616D65F4
:10065000203A200053657474696E67732053746F79
:10066000726564006563686F3A00746172676572F1
:10067000744665656472617465203A200063757222
:1006800072656E74646972203A20006375727265D7
:100690006E7446656564726174653A2000746172B7
:1006A00067657274646972203A20005049446F751E
:1006B000744665656472617465203A2000656E63F6
:1006C0006F75666F72504944203A200070756C73E4
:1006D00065666F72504944203A2000444B64006BB9
:1006E00064203A2000444B693A20006B693A2000AC
:1006F000444B703A20006B703A200073686F72743C
:100700005F5049446F757446656564726174653AFB
:10071000200064696E7075743A20006572726F72A1
:100720003A20004B643A20004B693A20004B703A63
:10073000200024F4D43050C38E20C2A24017828BF4
:100740007011127A910D816CD90AA861E108C7581D
:100750006607615143061E4B5D05C145A7041A415A
:100760001104093D9803713931034036DB026533CA
:100770009102D4305402802E1D02632CEE01752AA2
:10078000C501B028A001102781018F2564012B2409
:100790004B01E0223401AC211F018D200D01801F8F
:1007A000FC00841EED00971DDF00B81CD200E61B84
:1007B000C600201BBC00641AB200B219A8000A19B6
:1007C000A0006A189900D117910040178B00B51648
:1007D000840031167E00B31579003A157300C714F2
:1007E0006F0058146A00EE13660088136300251327
:1007F0005E00C7125B006C12570015125400C11145
:10080000510070114F0021114B00D61049008D107E
:1008100047004610440002104200C00F4000800F05
:100820003E00420F3C00060F3B00CB0E3800930EFB
:1008300037005C0E3500270E3400F30D3200C10D79
:100840003100900D3000600D2E00320D2D00050D91
:100850002C00D90C2B00AE0C2900850C29005C0C57
:100860002700350C27000E0C2600E80B2400C40BD3
:100870002400A00B23007D0B23005A0B2100390B11
:100880002100180B2000F80A1F00D90A1E00BB0A1D
:100890001E009D0A1D00800A1D00630A1C00470AF5
:1008A0001B002C0A1B00110A1A00F7091A00DD09A7
:1008B0001900C4091900AB091900920917007B0936
:1008C0001800630917004C091600360916002009A4
:1008D00016000A091500F5081500E0081400CC08F8
:1008E0001400B8081400A4081400900813007D0830
:1008F00012006B0813005808120046081200340852
:100900001100230811001208110001081100F0075E
:100910001000E0071000D0071000C0071000B0075B
:100920000F00A107100091070E0083070F00740746
:100930000F0065070E0057070E0049070E003B0722
:100940000D002E070E0020070D0013070D000607EF
:100950000D00F9060C00ED060D00E0060C00D406B3
:100960000C00C8060C00BC060C00B0060C00A40667
:100970000B0099060C008D060B0082060B00770613
:100980000B006C060B0061060A0057060B004C06B4
:100990000A0042060A0038060A002E060A0024064B
:1009A0000A001A060A001006090007060A00FD05DB
:1009B0000900F4050900EB050900E2050900D90565
:1009C0000900D0050900C7050900BE050900B505E5
:1009D0000800AD050800A50509009C050800940560
:1009E00008008C050800840508007C0508007405D3
:1009F00008006C050700650508005D050700560541
:100A000008004E05070047050700400508003805A7
:100A10000700310507002A050700230507001C050C
:100A20000600160507000F05070008050600020569
:100A30000700FB040600F5040700EE040600E804C6
:100A40000600E2040700DB040600D5040600CF041C
:100A50000600C9040600C3040600BD040600B7046E
:100A60000600B1040500AC040600A6040600A004BC
:100A700005009B04060095040500900406008A0406
:100A8000050085040500800406007A04050075044D
:100A90000500700405006B04050066040500610490
:100AA00005005C04050057040500520405004D04D0
:100AB000050048040500430405003E0404003A0410
:100AC000050035040500300404002C04050027044B
:100AD0000400230405001E0404001A040400160484
:100AE0000500110404000D040400090405000404B9
:100AF000040000040400FC030400F8030400F403F1
:100B00000400F0030400EC030400E8030400E40321
:100B10000400E0030400DC030400D8030400D40351
:100B20000400D0030400CC030400C8030300C50381
:100B3000030024F404D9201BC40C5C0E9804C409DF
:100B40005F0265077101F405F900FB04B300480476
:100B50008700C10369005803550003034500BE0226
:100B60003A008402310053022A00290225000402BF
:100B70002000E4011C00C8011900AF011700980112
:100B80001400840113007101100061011000510173
:100B90000E0043010D0036010B002B010B0020015C
:100BA0000B00150109000C01090003010800FB00FE
:100BB0000800F3000800EB000700E4000600DE0078
:100BC0000600D8000600D2000600CC000500C700D1
:100BD0000500C2000500BD000400B9000400B50016
:100BE0000400B1000400AD000400A9000400A50049
:100BF0000300A20003009F0004009B000300980074
:100C000003009500020093000300900003008D0094
:100C100002008B00030088000200860002008400AE
:100C20000300810002007F0002007D0002007B00C3
:100C300002007900020077000100760002007400D3
:100C4000020072000100710002006F0002006D00DE
:100C500001006C0002006A000100690002006700E8
:100C600001006600010065000100640002006200EE
:100C7000010061000100600001005F0002005D00F2
:100C800001005C0001005B0001005A0001005900F6
:100C900001005800010057000100560001005500F6
:100CA00001005400010053000000530001005200F5
:100CB000010051000100500001004F0001004E00F2
:100CC00000004E0001004D0001004C0001004B00EF
:100CD00000004B0001004A000100490001004800EB
:100CE00000004800010047000100460000004600E7
:100CF00001004500000045000100440001004300E0
:100D000000004300010042000000420001004100D9
:100D1000000041000100400001003F0000003F00D2
:100D200001003E0000003E0001003D0000003D00CB
:100D300001003C0000003C0000003C0001003B00C2
:100D400000003B0001003A0000003A0001003900B9
:100D500000003900010038000000380000003800B1
:100D600001003700000037000100360000003600A7
:100D7000000036000100350000003500000035009D
:100D80000100340000003400000034000100330092
:100D90000000330000003300010032000000320088
:100DA000000032000100310000003100000031007D
:100DB00001003000000030000000300001002F0072
:100DC00000002F0000002F0000002F0001002E0067
:100DD00000002E0000002E0001002D0000002D005C
:100DE00000002D0000002D0001002C0000002C0050
:100DF00000002C0000002C0001002B0000002B0044
:100E000000002B0000002B0001002A0000002A0037
:100E100000002A0000002A0001002900000029002B
:100E2000000029000000290000002900010028001E
:100E30000000280000002800000028000000280012
:100E40000100270000002700000027000000270005
:100E500000002700010026000000260000002600F8
:100E600000002600000026000100250000002500EB
:100E700000002500000025000000250000002500DE
:100E800001002400000024000000240000002400D1
:100E900000002400010023000000230000002300C4
:100EA00000002300000023000000230000002300B6
:100EB00001002200000022000000220000002200A9
:100EC000000022000000220001002100000021009B
:100ED000000021000000210000002100000021008E
:100EE0000000210001002000000020000000200080
:100EF0000000200000002000000020000000200072
:100F00000000200001001F0000001F0000001F0063
:100F100000001F0000001F0000001F0000001F0055
:100F200001001E0000001E0000001E0000001E0048
:100F30000000000000080002010000030407000098
:100F4000000000000000010204081020408001029F
:100F500004081020010204081020040404040404FE
:100F6000040402020202020203030303030300005B
:100F700000002300260029000000000025002800B2
:100F80002B0000000000240027002A004E414E499B
:100F90004E495459494E46CDCCCC3D0AD7233C1737
:100FA000B7D13877CC2B329595E6241FB14F0A0084
:100FB0000020410000C84200401C4620BCBE4CCA74
:100FC0001B0E5AAEC59D74004119191D10297A2DAA
:100FD00011241FBECFEFD8E0DEBFCDBF11E0A0E0EF
:100FE000B1E0E4E2FEE602C005900D92A034B10744
:100FF000D9F724E0A0E4B1E001C01D92A035B2070A
:10100000E1F71FE0C0EDDFE004C02297FE010E947F
:10101000AA33C83CD107C9F70E94D12F0C941037CE
:101020000C940000DC01ED91FC910190F081E02D29
:101030000994FC0186E390E09183808315861486F1
:1010400081E090E09787868782E090E0918B808BAB
:1010500083E090E0938B828B84E090E0958B848B8F
:1010600085E090E0978B868B86E090E0918F808F73
:1010700087E090E0938F828F88E090E0958F848F57
:101080008CE090E0978F868F8DE090E091A380A315
:101090008EE090E093A382A38FE090E095A384A3D9
:1010A0008BE090E097A386A38AE190E091A780A7C8
:1010B0008BE190E093A782A78CE190E095A784A7AD
:1010C0008FEF90E097A786A70895EF92FF920F9376
:1010D0001F93CF93DF93EC017B018A0168817981B3
:1010E00088E292E00E94011DB80188E292E00E942D
:1010F000120888E292E00E94161D6881798141E021
:1011000050E088E292E00E94F41C88E292E00E94A3
:10111000461C892BD1F388E292E00E944E1C8C0180
:101120006881798188E292E00E94011DB70188E21E
:1011300092E00E94120888E292E00E94161D6881E7
:10114000798141E050E088E292E00E94F41C88E25C
:1011500092E00E94461C892BD1F388E292E00E9423
:101160004E1C20E030E0382FC901802B912BDF91FD
:10117000CF911F910F91FF90EF900895FC0140A136
:1011800051A1668D778D0C946508DC01ED91FC9181
:101190000190F081E02D0994CF92DF92EF92FF92BF
:1011A000CF93DF93EC016A017B01FE01649166231A
:1011B00049F0772767FD709588EA93E00E94C5089B
:1011C0002196F3CF22E030E0B701A60188EA93E050
:1011D000DF91CF91FF90EF90DF90CF900C94CE2FC6
:1011E000CF92DF92EF92FF92CF93DF93EC016A01EF
:1011F0007B01FE016491662349F0772767FD7095B6
:1012000088EA93E00E94C5082196F3CF22E030E0FF
:10121000B701A60188EA93E0DF91CF91FF90EF90AC
:10122000DF90CF900C94CE2FCF92DF92EF92FF926F
:10123000CF93DF93EC016A017B01FE016491662389
:1012400049F0772767FD709588EA93E00E94C5080A
:101250002196F3CF2AE030E0B701A60188EA93E0B7
:10126000DF91CF91FF90EF90DF90CF900C94B32E51
:101270001F93CF93DF93EC01162FFE0184918823F7
:1012800051F0682F772767FD709588EA93E00E94F8
:10129000C5082196F2CF612F70E04AE050E088EA5D
:1012A00093E0DF91CF911F910C94AB2ECF93DF93FE
:1012B00026E040E052EC61E070E088EA93E00E94B2
:1012C000B62C04B600FE17C0E2E4F4E06491EF012E
:1012D000662359F0772767FD709588EA93E00E94AE
:1012E000C5082196FE016491F3CF6AE070E088EAB8
:1012F00093E00E94C50804B601FE17C0E3E3F4E0E2
:101300006491EF01662359F0772767FD709588EAAD
:1013100093E00E94C5082196FE016491F3CF6AE034
:1013200070E088EA93E00E94C50804B602FE17C088
:10133000E4E1F4E06491EF01662359F0772767FD5B
:10134000709588EA93E00E94C5082196FE01649199
:10135000F3CF6AE070E088EA93E00E94C50804B623
:1013600003FE17C0E3E0F4E06491EF01662359F057
:10137000772767FD709588EA93E00E94C50821965B
:10138000FE016491F3CF6AE070E088EA93E00E9486
:10139000C50814BEE2E5F4E06491EF01662359F05C
:1013A000772767FD709588EA93E00E94C50821962B
:1013B000FE016491F3CFE3EFF3E06491EF01662364
:1013C00059F0772767FD709588EA93E00E94C50879
:1013D0002196FE016491F3CFEEEDF3E06491EF010D
:1013E000662359F0772767FD709588EA93E00E949D
:1013F000C5082196FE016491F3CFE2EDF3E064911C
:10140000EF01662359F0772767FD709588EA93E02E
:101410000E94C5082196FE016491F3CFE3ECF3E04E
:101420006491EF01662359F0772767FD709588EA8C
:1014300093E00E94C5082196FE016491F3CF6AE013
:1014400070E088EA93E00E94C508E8EBF3E064915D
:10145000EF01662359F0772767FD709588EA93E0DE
:101460000E94C5082196FE016491F3CFECEAF3E0F7
:101470006491EF01662359F0772767FD709588EA3C
:1014800093E00E94C5082196FE016491F3CF6AE0C3
:1014900070E088EA93E00E94C5080E94EA150E9465
:1014A0002F1C88E70E943E1C0E944F290E94B01703
:1014B0000E941D1D1092330381E08093AB01DF91E8
:1014C000CF91089580914C0190914D0160E070E0C2
:1014D00001960C94BD33682F772767FD7095809136
:1014E00056019091570125E0880F991F2A95E1F741
:1014F000865A9E4F0E948E3690934D0180934C01E8
:1015000021E0892B09F420E0822F0895CF93DF9307
:101510000E942A3060934001709341018093420100
:1015200090934301E2EEF0E06491EF01662359F0FD
:10153000772767FD709588EA93E00E94C508219699
:10154000FE016491F3CF6AE070E088EA93E0DF91F6
:10155000CF910C94C508F894E8E5F4E06491EF01AC
:10156000662359F0772767FD709588EA93E00E941B
:10157000C5082196FE016491F3CFE3ECF0E064919D
:10158000EF01662359F0772767FD709588EA93E0AD
:101590000E94C5082196FE016491F3CF6AE070E0D5
:1015A00088EA93E00E94C508FFCF68E488EA93E0E8
:1015B0000E94FD2D67E071E088EA93E00E94FB2D18
:1015C000409136035091370360913803709139038D
:1015D0002AE030E088EA93E00E94612E67E071E043
:1015E00088EA93E00E94FB2D4091BF015091C00119
:1015F0006091C1017091C2012AE030E088EA93E075
:101600000E94612E67E071E088EA93E00E94FB2D62
:1016100088EA93E00C94042ECF93DF9360E371E0AB
:1016200088EA93E00E94FB2D6AE070E088EA93E08C
:101630000E94C508E2E5F4E06491EF01662359F0E9
:10164000772767FD709588EA93E00E94C508219688
:10165000FE016491F3CF60E371E088EA93E00E94B9
:10166000FB2D6AE070E088EA93E00E94C508E4EB95
:10167000F0E06491EF01662359F0772767FD7095DC
:1016800088EA93E00E94C5082196FE016491F3CF99
:101690000E94B629AB01BC012AE030E088EA93E061
:1016A0000E94612E6AE070E088EA93E00E94C5081B
:1016B000E3EAF0E06491EF01662359F0772767FDD4
:1016C000709588EA93E00E94C5082196FE01649116
:1016D000F3CF0E943819AB01BC012AE030E088EA60
:1016E00093E00E94612E6AE070E088EA93E00E9435
:1016F000C508E8E9F0E06491EF01662359F0772727
:1017000067FD709588EA93E00E94C5082196FE0166
:101710006491F3CF0E94431C4AE050E0682F88EAAE
:1017200093E00E94C02E6AE070E088EA93E00E9495
:10173000C508EBE7F0E06491EF01662359F07727E5
:1017400067FD709588EA93E00E94C5082196FE0126
:101750006491F3CF4091B3015091B4016091B50110
:101760007091B6012AE030E088EA93E00E94B32E3F
:101770006AE070E088EA93E00E94C508E8E6F0E0DD
:101780006491EF01662359F0772767FD709588EA29
:1017900093E00E94C5082196FE016491F3CF609109
:1017A000060170E04AE050E088EA93E00E94AB2E28
:1017B0006AE070E088EA93E00E94C50860E371E0A7
:1017C00088EA93E00E94FB2D6AE070E088EA93E0EB
:1017D000DF91CF910C94C508CF93DF9387E40E94EB
:1017E0006B0A882339F10E94620A0E94FD3162303F
:1017F000710570F488E50E946B0A882309F423C3FD
:101800000E94620A0E94FD31DF91CF910C94BF29A2
:10181000EDE5F2E06491EF01662309F4B8C07727A3
:1018200067FD709588EA93E00E94C5082196FE0145
:101830006491F2CF8DE40E946B0A882309F403C3FC
:101840000E94620A0E94FD316F33710509F4D9C10B
:101850000CF03EC06633710509F411C1D4F4633352
:10186000710509F46CC044F46233710509F0D9C202
:10187000DF91CF910C940C0B6433710509F48FC088
:101880006533710509F0CDC2E7E0F2E06491EF0144
:10189000DBC06C33710509F440C16CF46833710529
:1018A00009F4F1C06933710509F0BBC2E9EFF1E059
:1018B0006491EF01F5C06D33710509F463C16E33B6
:1018C000710509F0AEC2E3ECF1E06491EF0177C17C
:1018D0006434710509F46FC29CF46134710509F434
:1018E000BDC10CF4A9C16234710509F4FFC16334B0
:1018F000710509F096C2E5E4F1E06491EF0144C29C
:10190000653FF1E07F0709F400C164F465347105B7
:1019100009F46CC2643F714009F083C2DF91CF913A
:101920000C946212663FF1E07F0709F4F2C0673F52
:10193000714009F076C2DF91CF910C94241383E5B6
:101940000E946B0A882331F00E94620A0E940232D0
:101950006093AC010E94A218E0E4F2E06491EF0110
:10196000662359F0772767FD709588EA93E00E9417
:10197000C5082196FE016491F3CF6091AE0170918C
:10198000AF014AE050E088EA93E00E94C72E6AE087
:1019900070E088EA93E0DF91CF910C94C508E7E20C
:1019A000F2E06491EF01662359F0772767FD7095A7
:1019B00088EA93E00E94C5082196FE016491F3CF66
:1019C00060E371E088EA93E00E94FB2D6AE070E03A
:1019D00088EA93E00E94C5088091060191E089277A
:1019E00080930601882321F080916F00826003C0FC
:1019F00080916F008D7F80936F00E6E1F2E064914B
:101A0000EF01662359F0772767FD709588EA93E028
:101A10000E94C5082196FE016491F3CF60E371E056
:101A200088EA93E00E94FB2D6AE070E088EA93E088
:101A30000E94C5086091060170E04AE050E088EA23
:101A400093E00E94AB2EA3CF662359F0772767FD62
:101A5000709588EA93E00E94C5082196FE01649182
:101A6000F3CF60E371E088EA93E00E94FB2D6AE027
:101A700070E088EA93E00E94C5085E9AE4C1DF91B5
:101A8000CF910C94D50A83E50E946B0A882309F450
:101A9000DAC10E94620A0E9402326093AD01D3C192
:101AA000662359F0772767FD709588EA93E00E94D6
:101AB000C5082196FE016491F3CF83E50E946B0A6D
:101AC000882309F4C0C10E94620A0E94FD31862F5A
:101AD0000E943E1CEBEEF1E06491EF01662359F0A9
:101AE000772767FD709588EA93E00E94C5082196E4
:101AF000FE016491F3CF0E94431C4AE050E0682F3E
:101B000088EA93E00E94C02E42CFDF91CF910C94DF
:101B1000EA15DF91CF910C943E15E1EEF1E064916E
:101B2000EF01662359F0772767FD709588EA93E007
:101B30000E94C5082196FE016491F3CF6AE070E02F
:101B400088EA93E00E94C50880E50E946B0A88231A
:101B500021F00E94620A0E94E62589E40E946B0A35
:101B6000882321F00E94620A0E94092684E40E94D0
:101B70006B0A882309F467C10E94620ADF91CF9142
:101B80000C942E26E5EDF1E06491EF01662359F007
:101B9000772767FD709588EA93E00E94C508219633
:101BA000FE016491F3CF6AE070E088EA93E00E945E
:101BB000C5080E943127DF91CF910C9453266623EC
:101BC00059F0772767FD709588EA93E00E94C50871
:101BD0002196FE016491F3CF6AE070E088EA93E019
:101BE0000E94C50880E50E946B0A882309F42BC176
:101BF0000E94620A0E940232CB01DF91CF910C94C5
:101C00004221E0EBF1E06491EF01662359F0772780
:101C100067FD709588EA93E00E94C5082196FE0151
:101C20006491F3CF6AE070E088EA93E00E94C5080F
:101C3000DF91CF910C945423EAE9F1E06491EF0134
:101C4000662309F4A4CE772767FD709588EA93E0B0
:101C50000E94C5082196FE016491F2CFE7E8F1E009
:101C60006491EF01662359F0772767FD709588EA44
:101C700093E00E94C5082196FE016491F3CF6AE0CB
:101C800070E088EA93E00E94C50883E50E946B0A31
:101C9000882339F00E94620A0E940232CB010E941E
:101CA000CE228AE40E946B0A882339F00E94620ADD
:101CB0000E940232CB010E94482288E50E946B0AF2
:101CC000882331F00E94620A0E9402320E9435226B
:101CD00081E40E946B0A882309F4B5C00E94620A5D
:101CE0000E940232DF91CF910C943F2283E50E9443
:101CF0006B0A882309F1EFE6F1E06491EF016623B6
:101D000059F0772767FD709588EA93E00E94C5082F
:101D10002196FE016491F3CF6AE070E088EA93E0D7
:101D20000E94C5080E94620A6093270370932803EB
:101D30008093290390932A0380E50E946B0A8823ED
:101D400009F481C0E7E5F1E06491EF01662359F001
:101D5000772767FD709588EA93E00E94C508219671
:101D6000FE016491F3CF6AE070E088EA93E00E949C
:101D7000C5080E94620A6093230370932403809332
:101D80002503909326035FC0662359F0772767FDEC
:101D9000709588EA93E00E94C5082196FE0164913F
:101DA000F3CF6AE070E088EA93E00E94C508DF9113
:101DB000CF910C94B718E4E3F1E06491EF0166234E
:101DC00059F0772767FD709588EA93E00E94C5086F
:101DD0002196FE016491F3CF6AE070E088EA93E017
:101DE0000E94C508DF91CF910C946B25EDE1F1E0E5
:101DF0006491EF01662359F0772767FD709588EAB3
:101E000093E00E94C5082196FE016491F3CF6AE039
:101E100070E088EA93E00E94C508DF91CF910C94AE
:101E2000AF29EEEEF0E06491EF01662309F4AFCD47
:101E3000772767FD709588EA93E00E94C508219690
:101E4000FE016491F2CFDF91CF910895CF93DF939C
:101E500088EA93E00E942F2CE5EEF0E06491EF0118
:101E6000662359F0772767FD709588EA93E00E9412
:101E7000C5082196FE016491F3CF40914401509131
:101E8000450160914601709147014F5F5F4F6F4F71
:101E90007F4F2AE030E088EA93E00E94612E6AE0FA
:101EA00070E088EA93E00E94C508DF91CF910C941E
:101EB000860A8F929F92AF92BF92DF92EF92FF922B
:101EC0000F931F93CF93DF9302E010E0ACE8EA2E6C
:101ED000A2E0FA2EDD24D39488EA93E00E94D32B6B
:101EE000181619060CF014C28091520190915301FA
:101EF00002970CF00DC288EA93E00E94EC2B8093CD
:101F0000510120914F01309150018A3061F08D30A4
:101F100051F08A3321F490914E01992321F02F3111
:101F200031050CF45FC12115310519F410924E01F1
:101F3000EFC180915401909155015C01F5E0AA0C2C
:101F4000BB1CFA95E1F7F501E20FF31FE65AFE4FCD
:101F5000108220914E01211140C1FC01E85AFE4F30
:101F60001082E501C65ADE4F6EE470E0CE010E9499
:101F70008E36009709F477C090934D0180934C0101
:101F80008C1B9D0B8A0D9B1D4AE050E060E070E0C9
:101F9000855A9E4F0E9420356093480170934901F5
:101FA00080934A0190934B018090440190904501A9
:101FB000A0904601B09047012FEF821A920AA20A20
:101FC000B20AC0915401D0915501681579058A056E
:101FD0009B0509F425C167EA73E0CE01E5E0880FAF
:101FE000991FEA95E1F7865A9E4F0E947436892B15
:101FF00009F016C1E8E5F4E06491EF01662359F0B9
:10200000772767FD709588EA93E00E94C5082196BE
:10201000FE016491F3CFE4E7F3E06491EF016623FE
:1020200059F0772767FD709588EA93E00E94C5080C
:102030002196FE016491F3CF4091440150914501F6
:1020400060914601709147012AE030E088EA93E010
:102050000E94612E6AE070E088EA93E00E94C50861
:102060000E94260F3EC06AE270E0CE010E948E36CA
:10207000892B09F44BC0E8E5F4E06491EF01662395
:1020800059F0772767FD709588EA93E00E94C508AC
:102090002196FE016491F3CFE1E0F3E06491EF015A
:1020A000662359F0772767FD709588EA93E00E94D0
:1020B000C5082196FE016491F3CF409144015091EF
:1020C000450160914601709147012AE030E088EABD
:1020D00093E00E94612E6AE070E088EA93E00E943B
:1020E000C5081092500110924F0112C18091480111
:1020F00090914901A0914A01B0914B018093440114
:1021000090934501A0934601B0934701C0915401BB
:10211000D091550165E0CC0FDD1F6A95E1F7CE0146
:10212000865A9E4F5C0167E470E00E948E360097ED
:1021300071F190934D0180934C018A199B098C0F8A
:102140009D1F60E070E0855A9E4F0E94BD330E9443
:10215000FD3164307105D8F480919A018823B9F07B
:10216000F7016491CCE8D2E0662359F0772767FD48
:10217000709588EA93E00E94C5082196FE0164915B
:10218000F3CF6AE070E088EA93E00E94C508C0914E
:102190005401D0915501CE0155E0880F991F5A95F1
:1021A000E1F769E071E0865A9E4F0E949936892BCB
:1021B00011F40E94AB0ACE010196B8010E944B3384
:1021C0009093550180935401809152019091530155
:1021D00001969093530180935201109250011092F6
:1021E0004F017ACE8B3311F4D0924E0190914E0173
:1021F000911172CEE0915401F0915501A9014F5F08
:102200005F4F5093500140934F0145E0EE0FFF1F89
:102210004A95E1F7E20FF31FE65AFE4F80835CCE4A
:1022200035E0CC0FDD1F3A95E1F7CE01865A9E4F7F
:102230004C016AE270E00E948E36009719F5E8E5DD
:10224000F4E06491EF01662359F0772767FD7095FC
:1022500088EA93E00E94C5082196FE016491F3CFBD
:10226000EBE2F3E06491EF01662309F4E5CE772712
:1022700067FD709588EA93E00E94C5082196FE01EB
:102280006491F2CF20E0B12CFE01E20FF11DE65A7D
:10229000FE4F30813A3219F02F5FB326F5CF90937D
:1022A0004D0180934C01881999098C0F9D1F60E0A6
:1022B00070E0855A9E4F0E94BD330E94FD312B2D48
:1022C00030E02617370709F411CFE8E5F4E0649110
:1022D000EF01662359F0772767FD709588EA93E050
:1022E0000E94C5082196FE016491F3CFE5E5F3E075
:1022F0006491EF01662309F49FCE772767FD7095FF
:1023000088EA93E00E94C5082196FE016491F2CF0D
:10231000DF91CF911F910F91FF90EF90DF90BF90D1
:10232000AF909F908F9008950F931F9380915201CB
:10233000909153011816190614F00E94590F8091BC
:10234000520190915301892BD1F00E94EC0B8091A6
:102350005201909153010197909353018093520140
:102360008091560190915701019662E070E00E94C1
:102370004B3390935701809356010E94860A8091B7
:10238000AB01882349F10E9436300091A7011091DA
:10239000A8012091A9013091AA01601B710B820B49
:1023A000930B6093A3017093A4018093A501909374
:1023B000A601683C71058105910570F00E94F71730
:1023C0000E945B230E9436306093A7017093A8019E
:1023D0008093A9019093AA010E942A3000919F0145
:1023E0001091A0012091A1013091A201601B710BFD
:1023F000820B930B60939B0170939C0180939D01D2
:1024000090939E016A3071058105910560F00E94EC
:10241000BF180E942A3060939F017093A00180939F
:10242000A1019093A2011F910F910895EF92FF9245
:102430000F931F93CF93DF931F92CDB7DEB78C011D
:102440007B01460FF70161917F01F8018081918145
:1024500049830E94B836F801808191810196918369
:10246000808349814E11EECF0F90DF91CF911F9164
:102470000F91FF90EF900895EF92FF920F931F93AB
:10248000CF93DF931F92CDB7DEB78C017B01460F50
:10249000F8018081918149830E94B036F7018193D0
:1024A0007F01F80180819181019691838083498128
:1024B0004E11EECF0F90DF91CF911F910F91FF90B2
:1024C000EF9008950F931F93CF93DF93CDB7DEB7AF
:1024D0002A970FB6F894DEBF0FBECDBF80E390E31E
:1024E000A0E3B0E08D839E83AF83B88704E610E05D
:1024F0001A87098744E0BE016B5F7F4FCE010996C2
:102500000E94161244E06CEF72E0CE0109960E9420
:10251000161244E068EF72E0CE0109960E9416128E
:1025200044E064EF72E0CE0109960E94161242E088
:102530006FE073E0CE0109960E94161242E064E15A
:1025400073E0CE0109960E94161244E06CE273E03B
:10255000CE0109960E94161244E066E173E0CE01B6
:1025600009960E94161241E06BE273E0CE010996D3
:102570000E94161241E061EB71E0CE0109960E94C3
:10258000161244E067E273E0CE0109960E9416122B
:1025900041E06DEA71E0CE0109960E94161241E019
:1025A0006CEA71E0CE0109960E94161241E062E3E6
:1025B00073E0CE0109960E94161286E591E3A0E32E
:1025C000B0E089839A83AB83BC831A87098744E090
:1025D000BE016F5F7F4FCE0109960E941612E4E69E
:1025E000F6E064918F01662361F0772767FD7095AF
:1025F00088EA93E00E94C5080F5F1F4FF8016491BD
:10260000F2CFE4E5F6E064918F01662361F077276D
:1026100067FD709588EA93E00E94C5080F5F1F4F21
:10262000F8016491F2CF6AE070E088EA93E00E94DA
:10263000C5082A960FB6F894DEBF0FBECDBFDF9156
:10264000CF911F910F910895CF93DF93E4E6F6E0C9
:102650006491EF01662359F0772767FD709588EA4A
:1026600093E00E94C5082196FE016491F3CFE4E453
:10267000F6E06491EF01662359F0772767FD7095C6
:1026800088EA93E00E94C5082196FE016491F3CF89
:10269000E5E3F6E06491EF01662359F0772767FDE3
:1026A000709588EA93E00E94C5082196FE01649126
:1026B000F3CF6AE070E088EA93E00E94C508EFE299
:1026C000F6E06491EF01662359F0772767FD709576
:1026D00088EA93E00E94C5082196FE016491F3CF39
:1026E000EBE0F6E06491EF01662359F0772767FD90
:1026F000709588EA93E00E94C5082196FE016491D6
:10270000F3CF6AE070E088EA93E00E94C508E1E058
:10271000F6E06491EF01662359F0772767FD709525
:1027200088EA93E00E94C5082196FE016491F3CFE8
:10273000E9EFF5E06491EF01662359F0772767FD33
:10274000709588EA93E00E94C5082196FE01649185
:10275000F3CF6AE070E088EA93E00E94C508EEEDEE
:10276000F5E06491EF01662359F0772767FD7095D6
:1027700088EA93E00E94C5082196FE016491F3CF98
:102780006AE070E088EA93E00E94C5084091AC01DD
:1027900050E060E070E088ED95E00E94140960E38D
:1027A00071E088EA93E00E94FB2D6AE070E088EA1D
:1027B00093E00E94C508EBEAF5E06491EF0166231F
:1027C00059F0772767FD709588EA93E00E94C50865
:1027D0002196FE016491F3CF6AE070E088EA93E00D
:1027E0000E94C508E1E9F5E06491EF01662359F024
:1027F000772767FD709588EA93E00E94C5082196C7
:10280000FE016491F3CF6AE070E088EA93E00E94F1
:10281000C5084091AD0150E060E070E08BE895E0C4
:102820000E94140960E371E088EA93E00E94FB2DA6
:102830006AE070E088EA93E00E94C508E1E7F5E00D
:102840006491EF01662359F0772767FD709588EA58
:1028500093E00E94C5082196FE016491F3CF6AE0DF
:1028600070E088EA93E00E94C5084091FC02509114
:10287000FD026091FE027091FF028BE695E00E94DE
:10288000F0084091F8025091F9026091FA027091BB
:10289000FB0288E695E00E94F0084091F402509116
:1028A000F5026091F6027091F70285E695E00E94CC
:1028B000F00860E371E088EA93E00E94FB2D6AE093
:1028C00070E088EA93E00E94C50840910F035091A0
:1028D000100360E070E08FE595E00E9414094091DC
:1028E00014035091150360E070E08CE595E00E94C0
:1028F000140940912C0350912D0360912E03709187
:102900002F0389E595E00E94140940911603509128
:102910001703609118037091190386E595E00E94F2
:10292000140960E371E088EA93E00E94FB2D6AE0FD
:1029300070E088EA93E00E94C50840912703509117
:1029400028036091290370912A0380E595E00E9495
:10295000CC0860E371E088EA93E00E94FB2D6AE016
:1029600070E088EA93E00E94C5086091B10188E3B5
:1029700095E00E94380960E371E088EA93E00E94E4
:10298000FB2D6AE070E088EA93E00E94C508ECE065
:10299000F5E06491EF01662359F0772767FD7095A4
:1029A00088EA93E00E94C5082196FE016491F3CF66
:1029B0006AE070E088EA93E00E94C50860912B030A
:1029C0008CEF94E00E94380960E371E088EA93E0BC
:1029D0000E94FB2D6AE070E088EA93E00E94C5083F
:1029E000E8EDF4E06491EF01662359F0772767FD85
:1029F000709588EA93E00E94C5082196FE016491D3
:102A0000F3CF6AE070E088EA93E00E94C508609125
:102A1000320383EC94E00E94380960E371E088EAB5
:102A200093E00E94FB2D6AE070E088EA93E00E9448
:102A3000C508EBE9F4E06491EF01662359F07727CC
:102A400067FD709588EA93E00E94C5082196FE0113
:102A50006491F3CF6AE070E088EA93E00E94C508D1
:102A600060E371E088EA93E00E94FB2D6AE070E089
:102A700088EA93E0DF91CF910C94C508EF92FF9222
:102A80000F931F93CF93DF9380E090E0A2E8B3E42D
:102A90008093FC029093FD02A093FE02B093FF028C
:102AA0008AE097EDA3E2BCE38093F8029093F902E9
:102AB000A093FA02B093FB021092F4021092F50276
:102AC0001092F6021092F702E12CF12C87019C0182
:102AD000AD0160E070E082E893E40E94732580E538
:102AE00093ECA0E0B0E080932C0390932D03A0938F
:102AF0002E03B0932F0380EA9BEBADE0B0E0809310
:102B0000160390931703A0931803B093190380EB57
:102B100094E00E94482280E290E00E94CE2210922F
:102B20002B0381E08093B1010E94AD1880E090E01A
:102B3000A0E0B0E48093270390932803A093290397
:102B4000B0932A0380E090E0A0E8BFE380932303E2
:102B500090932403A0932503B093260382E08093EF
:102B6000AC0184E08093AD0188EC90E09093AF01DC
:102B70008093AE0110923203E4E6F6E06491EF0137
:102B8000662359F0772767FD709588EA93E00E94E5
:102B9000C5082196FE016491F3CFEFE5F4E064915E
:102BA000EF01662359F0772767FD709588EA93E077
:102BB0000E94C5082196FE016491F3CF6AE070E09F
:102BC00088EA93E0DF91CF911F910F91FF90EF90F2
:102BD0000C94C508EF92FF920F931F93CF93DF934E
:102BE000CDB7DEB72A970FB6F894DEBF0FBECDBFC4
:102BF00084E690E09A87898786E591E3A0E3B0E0D8
:102C000089839A83AB83BC8344E0BE016B5F7F4FB3
:102C1000CE0109960E943C1243E050E0BE016B5F7A
:102C20007F4FCE0101960E94A236892B09F0B4C0D5
:102C300044E06CEF72E0CE0109960E943C1244E041
:102C400068EF72E0CE0109960E943C1244E064EF06
:102C500072E0CE0109960E943C12E090F402F090DE
:102C6000F5020091F6021091F7022091F8023091DE
:102C7000F9024091FA025091FB026091FC027091BE
:102C8000FD028091FE029091FF020E94732542E0B6
:102C90006FE073E0CE0109960E943C1280910F0311
:102CA000909110030E94CE2242E064E173E0CE01D5
:102CB00009960E943C1280911403909115030E9482
:102CC000482244E06CE273E0CE0109960E943C1277
:102CD0000E940D2244E066E173E0CE0109960E9455
:102CE0003C1241E06BE273E0CE0109960E943C1277
:102CF0000E94832441E061EB71E0CE0109960E94BD
:102D00003C120E94AD1844E067E273E0CE010996E0
:102D10000E943C1241E06DEA71E0CE0109960E94EA
:102D20003C1241E06CEA71E0CE0109960E943C122F
:102D30000E94A21841E062E373E0CE0109960E946E
:102D40003C12E4E6F6E064918F01662361F0772798
:102D500067FD709588EA93E00E94C5080F5F1F4FDA
:102D6000F8016491F2CFE1E8F4E064918F01662309
:102D700061F0772767FD709588EA93E00E94C508A7
:102D80000F5F1F4FF8016491F2CF6AE070E088EAAC
:102D900093E00E94C50802C00E943E150E942413C1
:102DA0002A960FB6F894DEBF0FBECDBFDF91CF914C
:102DB0001F910F91FF90EF900895FF920F931F9333
:102DC000CF93DF93EC01209119028F813D81909187
:102DD00019024E81F0901902F094F4229323F92AFB
:102DE0008227F822809119028F83088519850115A1
:102DF0001105E1F0D80113969C918F2D892381F064
:102E000080911902892391E009F490E090931702D0
:102E1000F8018481809318020190F081E02D0995DA
:102E2000D80115960D911C911697E1CF8BB39C811B
:102E3000892349F08BB3892B8BBBE881F981808191
:102E400080931902C0CFDF91CF911F910F91FF9016
:102E500008951F920F920FB60F9211242F933F9354
:102E60004F935F936F937F938F939F93AF93BF9392
:102E7000EF93FF93E0910D02F0910E028081809319
:102E800019028DE092E00E94DD16FF91EF91BF9153
:102E9000AF919F918F917F916F915F914F913F91F2
:102EA0002F910F900FBE0F901F9018951F920F92A9
:102EB0000FB60F9211242F933F934F935F936F930D
:102EC0007F938F939F93AF93BF93EF93FF93E09183
:102ED0000302F091040280818093190283E092E062
:102EE0000E94DD16FF91EF91BF91AF919F918F915D
:102EF0007F916F915F914F913F912F910F900FBEF6
:102F00000F901F9018951F920F920FB60F921124D9
:102F10002F933F934F935F936F937F938F939F93E1
:102F2000AF93BF93EF93FF93E091F901F091FA0112
:102F300080818093190289EF91E00E94DD16FF9154
:102F4000EF91BF91AF919F918F917F916F915F9121
:102F50004F913F912F910F900FBE0F901F9018959A
:102F600060E082E00E94BD3060E082E00E94BD30FF
:102F700061E082E00E94F63061E089E00E94F63074
:102F80001092BF011092C0011092C1011092C201B3
:102F90001092B2018091BF019091C001A091C10136
:102FA000B091C2018093BB019093BC01A093BD017D
:102FB000B093BE011092B3011092B4011092B5010A
:102FC0001092B60188E292E00E94DD1C89EC91E04B
:102FD0000E94BE089093C8018093C7018091C701E9
:102FE0009091C8019093C6018093C501089589EC22
:102FF00091E00E94BE089093C8018093C701809120
:10300000C7019091C8012091C5013091C601821B72
:10301000930B9093C4018093C3018091C701909159
:10302000C8019093C6018093C5018091C30190911E
:10303000C4018130984F44F08091C3019091C40144
:10304000811598400CF460C08091C3019091C40137
:103050008115984014F18091B1012091C301309104
:10306000C401882369F08091BF019091C001A091B3
:10307000C101B091C20140E050E1421B530B1EC0A0
:103080008091BF019091C001A091C101B091C20196
:1030900040E050E1421B530B23C08091B1014091AD
:1030A000C3015091C401882391F08091BF01909198
:1030B000C001A091C101B091C201505F662757FDC8
:1030C0006095762F840F951FA61FB71F11C08091A2
:1030D000BF019091C001A091C101B091C201505FA8
:1030E000662757FD6095762F841B950BA60BB70BB3
:1030F0008093BF019093C001A093C101B093C2011E
:1031000081E08093B20108958091B101882369F034
:103110004091C3015091C4018091BF019091C001C1
:10312000A091C101B091C201C9CF4091C30150919A
:10313000C4018091BF019091C001A091C101B091E3
:10314000C201CECF8091AC0124E6829FC001112440
:103150009093AF018093AE0108958091B1018823CF
:1031600011F081E001C08FEF8093B001089580914C
:10317000B10191E089278093B1010C94AD18789446
:103180008091B201882309F462C04091BF0150913F
:10319000C0016091C1017091C2018091BB01909109
:1031A000BC01A091BD01B091BE01841B950BA60B83
:1031B000B70B8093B7019093B801A093B901B09376
:1031C000BA018091BF019091C001A091C101B0915D
:1031D000C2018093BB019093BC01A093BD01B09349
:1031E000BE018091B7019091B801A091B901B09151
:1031F000BA01181619061A061B064CF42091B701DD
:103200003091B8014091B9015091BA010FC080913D
:10321000B7019091B801A091B901B091BA012227EC
:103220003327A901281B390B4A0B5B0BA091AE0178
:10323000B091AF010E9481336093B3017093B401E8
:103240008093B5019093B6011092B2010895109247
:10325000B7011092B8011092B9011092BA01109200
:10326000B3011092B4011092B5011092B601089505
:103270006091BF017091C0018091C1019091C20124
:103280000895E2E7FFE08591949190930E02809378
:103290000D028BE690E09093100280930F0281E084
:1032A00080931102109212021092130210921602D1
:1032B00010921502E4E7FFE0859194919093040247
:1032C000809303028CE690E09093060280930502BF
:1032D00082E0809307021092080210920902109275
:1032E0000C0210920B02E6E7FFE085919491909317
:1032F000FA018093F9018DE690E09093FC018093B0
:10330000FB0184E08093FD011092FE011092FF0109
:10331000109202021092010289EC91E00C941908BB
:1033200080911D0290911E02A0911F02B091200277
:103330000196A11DB11D80931D0290931E02A093C2
:103340001F02B093200240911D0250911E02609115
:103350001F02709120028091230290912402A0917B
:103360002502B0912602481759076A077B07B0F07B
:1033700080911C02811112C081E080931C02109286
:103380001D0210921E0210921F0210922002E09164
:103390002102F0912202099510921C0208951F92B9
:1033A0000F920FB60F9211242F933F934F935F9379
:1033B0006F937F938F939F93AF93BF93EF93FF93FD
:1033C00080911A0290911B028093B2000E94901982
:1033D000FF91EF91BF91AF919F918F917F916F91ED
:1033E0005F914F913F912F910F900FBE0F901F90C3
:1033F00018952F923F924F925F926F927F928F9289
:103400009F92AF92BF92CF92DF92EF92FF920F9373
:103410001F93CF93DF9300D000D0CDB7DEB71C0150
:103420002A013B014801590120E030E0A901C30114
:10343000B2010E94913187FD78C020E030E0A901FF
:10344000C501B4010E94913187FD6FC020E030E0DA
:10345000A901C701B6010E94913187FD66C0F10143
:10346000408251826282738284829582A682B78270
:10347000C086D186E286F38664A575A586A597A544
:103480000E942E3220E030E04AE754E40E94953159
:1034900069837A838B839C83F10144865586668693
:1034A00077869B01AC01C501B4010E94E4324B0157
:1034B0005C01F101608B718B828B938B29813A8146
:1034C0004B815C81C701B6010E9495316B017C0183
:1034D000F101648B758B868B978B808D918D892BF9
:1034E00021F5A301920160E070E0CB010E942C3134
:1034F000F1016487758786879787A501940160E04D
:1035000070E0CB010E942C31F101608B718B828BBA
:10351000938BA701960160E070E0CB010E942C31F3
:10352000F101648B758B868B978B0F900F900F90AA
:103530000F90DF91CF911F910F91FF90EF90DF904F
:10354000CF90BF90AF909F908F907F906F905F9043
:103550004F903F902F9008958F929F92AF92BF927D
:10356000CF92DF92EF92FF92CF93DF93EC0116168A
:103570001706ACF56B01EE24D7FCE094FE2CC701D6
:10358000B6010E9430324B015C016CA57DA58EA571
:103590009FA50E942E329B01AC01C501B4010E947F
:1035A00095314B015C019B01AC01688979898A895D
:1035B0009B890E94E432688B798B8A8B9B8BA50157
:1035C00094016C897D898E899F890E9495316C8BCD
:1035D0007D8B8E8B9F8BCCA6DDA6EEA6FFA6DF9102
:1035E000CF91FF90EF90DF90CF90BF90AF909F90E2
:1035F0008F900895CF92DF92EF92FF920F931F93D7
:10360000FC0140175107620773070CF041C040AB43
:1036100051AB62AB73AB04AB15AB26AB37AB80AD34
:103620008823B1F1A48DB58DCD90DD90ED90FC9007
:1036300013970C151D052E053F0534F40D931D93AE
:103640002D933C9313970AC0C416D506E606F706D9
:103650002CF44D935D936D937C93139704A115A166
:1036600026A137A144A955A966A977A940175107F2
:10367000620773074CF040A951A962A973A9041706
:1036800015072607370724F444A355A366A377A399
:103690001F910F91FF90EF90DF90CF9008950F93BF
:1036A0001F93FC01A48DB58D4D915D916D917C9121
:1036B00044A355A366A377A3A28DB38D0D911D914D
:1036C0002D913C9100A711A722A733A704A915A902
:1036D00026A937A904171507260737074CF000A9B4
:1036E00011A922A933A9401751076207730724F4CF
:1036F00004A315A326A337A31F910F9108951F9329
:10370000CF93DF93EC0111E06130710509F010E017
:1037100088AD91E08927181303C0CE010E944F1B8A
:1037200018AFDF91CF911F9108950F931F93CF93FF
:10373000DF93EC018B0188AD882361F1888D998D31
:103740006817790739F12C853D854E855F8560E0E6
:1037500070E0CB010E942C316C877D878E879F871C
:10376000288939894A895B8960E070E0CB010E9431
:103770002C31688B798B8A8B9B8B2C893D894E8968
:103780005F8960E070E0CB010E942C316C8B7D8BF7
:103790008E8B9F8B198F088FDF91CF911F910F9187
:1037A00008954F925F926F927F928F929F92AF9205
:1037B000BF92CF92DF92EF92FF920F931F93CF931E
:1037C000DF9300D000D0CDB7DEB74C012701380120
:1037D000A982BA82CB82DC82FC01558F448F738F21
:1037E000628F378F268F10AE10AA11AA12AA13AAC1
:1037F0008FEF90E0A0E0B0E084AB95ABA6ABB7ABA9
:1038000084E690E0A0E0B0E084A795A7A6A7B7A7BC
:103810006B8D7C8DC4010E94951BCF88D88CE98C60
:10382000FA8C09811A812B813C81B301A201C40168
:103830000E94F9190F900F900F900F90DF91CF9188
:103840001F910F91FF90EF90DF90CF90BF90AF90BE
:103850009F908F907F906F905F904F9008951092FF
:10386000270261E083E00E94BD3083E28093B000D4
:1038700081E08093B1001092B400089580932702F4
:103880008093B40008958091270208958091580292
:1038900090E020915902821B9109089520915902CC
:1038A00080915802281750F4E22FF0E0E65AFD4FBD
:1038B000808190E02F5F2093590208958FEF9FEF52
:1038C0000895E091590280915802E81730F4F0E031
:1038D000E65AFD4F808190E008958FEF9FEF0895A5
:1038E0000895CF92DF92EF92FF920F931F93CF93A1
:1038F000DF937C01CB018A0120913402222389F0DD
:10390000EB016B01C40ED51ECC15DD0569F0699184
:10391000D701ED91FC910190F081E02DC70109954F
:10392000F3CF642F0E947D2AC801DF91CF911F91B0
:103930000F91FF90EF90DF90CF900895CF93DF939A
:103940001F92CDB7DEB76983209134022223D1F0D4
:1039500020913502203240F021E030E0FC01338339
:10396000228380E090E015C080913602E82FF0E0DD
:10397000E95CFD4F998190838F5F8093360280933D
:10398000350205C061E0CE0101960E947D2A81E0EA
:1039900090E00F90DF91CF910895FC011382128285
:1039A00048EE53E060E070E044835583668377839C
:1039B00082E191E0918380830895109259021092E0
:1039C000580210923602109235020C94C829862FA4
:1039D000413208F040E26AE572E00E94E629109266
:1039E000590280935802089521E00C94E71C81E06D
:1039F000809334026093570210923602109235027F
:103A000008950C94F71C0F93062F21E04091350286
:103A100067E372E0809157020E942A2A10923602D0
:103A200010923502109234020F91089561E00C94C7
:103A3000031D88E292E00C94CD1C0F931F9381E04C
:103A400090E09093F3028093F20288EC90E09093E0
:103A5000F1028093F00210921D0310921C03109249
:103A60001B03109222031092210380911D03809367
:103A70001A0361E070E08AE792E00E947F1B61E038
:103A800070E08AE792E00E94AC1A00912C0310913A
:103A90002D0320912E0330912F0344275527BA017F
:103AA000401B510B620B730B8AE792E00E94FA1ADB
:103AB00081E08093B3021092EB021092EA0210921E
:103AC000EC021092ED021092EE021092EF021092B0
:103AD000CA021092CB021092CC021092CD02109228
:103AE000C6021092C7021092C8021092C902A1E841
:103AF000B0E08C918F7E8C938C9188608C93E0E801
:103B0000F0E080818D7F808380818E7F80838081C3
:103B10008F73808380818F7C80838C91887F82608B
:103B20008C9380E090E490938900809388001092B9
:103B3000850010928400EFE6F0E08081826080834F
:103B40001F910F9108951F920F920FB60F9211249B
:103B50000F931F932F933F934F935F936F937F9395
:103B60008F939F93AF93BF93EF93FF93789480913C
:103B7000210390912203892B09F463C390911D03C3
:103B800080911A03981709F404C110920603109249
:103B90000703109208031092090340910203509109
:103BA00003036091040370910503009116031091C3
:103BB00017032091180330911903AA27419FB12DB3
:103BC000529FC001629F900D619F800D911D429F89
:103BD000B00D811D9A1F519FB00D811D9A1F609FCE
:103BE000B00D811D9A1F509FB10D8A1F9A1FB69567
:103BF0008A1F9A1F11249093010380930003409120
:103C00001B0350911C032091140330911503481796
:103C1000590728F430931C0320931B030AC04091DA
:103C20001B0350911C03481B590B50931C034093DA
:103C30001B0380911B0390911C032817390740F048
:103C400030931C0320931B0380911D0380931A0360
:103C500060911B0370911C0361368AEE780728F48B
:103C600061348CE9780750F002C060E67AEE83E0B8
:103C7000769567958A95E1F788E011C061328EE408
:103C8000780730F0769567957695679584E007C05C
:103C9000613187E2780730F07695679582E080930E
:103CA000300308C081E0809330036032710510F466
:103CB00060E270E060527109611588E07807E0F019
:103CC000872F9927880F991F880F991F8E5C944F13
:103CD000FC01329625913491AA27639FA001629F2F
:103CE000410D5A1F06944A1F5A1F1124FC012591A9
:103CF0003491241B350B1EC0CB01969587958C7F84
:103D00008E5C984FFC01259134910296FC014591FF
:103D10005491FB01E770FF274E9FC0014F9F900D0C
:103D20005E9F900D1124F3E096958795FA95E1F743
:103D3000281B390B2436310540F44AE050E088EA6C
:103D400093E00E94CD2E24E630E030930B032093C5
:103D50000A03309389002093880080910203909198
:103D60000303A0910403B0910503820F931FA11DCB
:103D7000B11D8093020390930303A0930403B093B7
:103D8000050380911A03882311F05D9A52C25D9851
:103D900050C2209121033091220380911B03909106
:103DA0001C038217930708F008C1109202031092B7
:103DB00003031092040310920503409106035091EF
:103DC0000703609108037091090300911603109195
:103DD00017032091180330911903AA27419FB12D91
:103DE000529FF001629FF00D619FE00DF11D429F17
:103DF000B00DE11DFA1F519FB00DE11DFA1F609F2C
:103E0000B00DE11DFA1F509FB10DEA1FFA1FB695C4
:103E1000EA1FFA1F1124F0930103E093000380913D
:103E20001B0390911C038E0F9F1F90931C03809384
:103E30001B0340911B0350911C0380912C03909114
:103E40002D03A0912E03B0912F0360E070E0841742
:103E50009507A607B70720F490931C0380931B03D4
:103E600020911B0330911C03809121039091220328
:103E70008217930740F4809121039091220390933D
:103E80001C0380931B0360911B0370911C0361361C
:103E90008AEE780728F461348CE9780750F002C084
:103EA00060E67AEE53E0769567955A95E1F788E0FB
:103EB00011C061328EE4780730F07695679576957B
:103EC000679584E007C0613187E2780730F0769526
:103ED000679582E08093300308C081E080933003CF
:103EE0006032710510F460E270E060527109611592
:103EF00088E07807E0F0872F9927880F991F880FAF
:103F0000991F8E5C944FFC01329625913491AA271B
:103F1000639FA001629F410D5A1F06944A1F5A1FBA
:103F20001124FC0125913491241B350B1EC0CB01BB
:103F3000969587958C7F8E5C984FFC0125913491E6
:103F40000296FC0145915491FB01E770FF274E9FBB
:103F5000C0014F9F900D5E9F900D112403E0969538
:103F600087950A95E1F7281B390B2436310540F473
:103F70004AE050E088EA93E00E94CD2E24E630E04B
:103F800030930B0320930A03309389002093880019
:103F90008091060390910703A0910803B091090353
:103FA000820F931FA11DB11D8093060390930703F9
:103FB000A0930803B09309033CC1209121033091E1
:103FC000220380911B0390911C032817390708F0E6
:103FD0000CC110920603109207031092080310926E
:103FE000090340910203509103036091040370910F
:103FF00005030091160310911703209118033091C7
:104000001903AA27419FB12D529FC001629F900DB5
:10401000619F800D911D429FB00D811D9A1F519F80
:10402000B00D811D9A1F609FB00D811D9A1F509F7A
:10403000B10D8A1F9A1FB6958A1F9A1F112490935B
:1040400001038093000340911B0350911C032091B6
:104050000F03309110034817590728F430931C03BD
:1040600020931B030AC040911B0350911C03481B63
:10407000590B50931C0340931B0380911B03909199
:104080001C038217930720F430931C0320931B0317
:1040900020911B0330911C038091210390912203F6
:1040A0002817390740F480912103909122039093BF
:1040B0001C0380931B0360911B0370911C036136EA
:1040C0008AEE780728F461348CE9780750F002C052
:1040D00060E67AEEB3E076956795BA95E1F788E009
:1040E00011C061328EE4780730F076956795769549
:1040F000679584E007C0613187E2780730F07695F4
:10410000679582E08093300308C081E0809330039C
:104110006032710510F460E270E06052710961155F
:1041200088E07807E0F0872F9927880F991F880F7C
:10413000991F8E5C944FFC01329625913491AA27E9
:10414000639FA001629F410D5A1F06944A1F5A1F88
:104150001124FC0125913491241B350B1EC0CB0189
:10416000969587958C7F8E5C984FFC0125913491B4
:104170000296FC0145915491FB01E770FF274E9F89
:10418000C0014F9F900D5E9F900D112443E09695C6
:1041900087954A95E1F7281B390B2436310540F401
:1041A0004AE050E088EA93E00E94CD2E24E630E019
:1041B00030930B0320930A033093890020938800E7
:1041C0008091020390910303A0910403B091050331
:1041D000820F931FA11DB11D8093020390930303CF
:1041E000A0930403B093050324C01092020310921D
:1041F0000303109204031092050310920603109219
:1042000007031092080310920903809121039091F3
:10421000220390931C0380931B0380911F039091B2
:104220002003909389008093880080911E038093DF
:10423000300380913003181694F45C985C9A815096
:10424000FACF80910F039091100390931C038093F9
:104250001B0380ED97E09093890080938800FF9185
:10426000EF91BF91AF919F918F917F916F915F91EE
:104270004F913F912F911F910F910F900FBE0F9073
:104280001F9018950F931F93009709F05E98009167
:10429000B3011091B4012091B5013091B601409164
:1042A0001B0350911C03569547955695479560E022
:1042B00070E0041715072607370720F496958795B1
:1042C0009695879540912C0350912D0360912E0374
:1042D00070912F038C0120E030E0401751076207F6
:1042E000730728F0909322038093210304C0509316
:1042F00022034093210320910F0330911003821772
:10430000930720F41092220310922103609121035D
:104310007091220361368AEE780728F461348CE9C3
:10432000780750F002C060E67AEE03E07695679574
:104330000A95E1F788E011C061328EE4780730F029
:10434000769567957695679584E007C0613187E239
:10435000780730F07695679582E08093300308C047
:1043600081E0809330036032710510F460E270E008
:1043700060527109611588E07807D0F0872F99277E
:10438000880F991F880F991F8E5C944FFC013296FD
:1043900045915491AA27659F9001649F210D3A1F72
:1043A00006942A1F3A1F1124FC01859194911DC087
:1043B000CB01969587958C7F8E5C984FFC0145913B
:1043C00054910296FC0185919491FB01E770FF27BF
:1043D0008E9F90018F9F300D9E9F300D1124E3E042
:1043E00036952795EA95E1F7CA01821B930B84362F
:1043F000910540F44AE050E088EA93E00E94CD2E17
:1044000084E690E09093200380931F038091300313
:1044100080931E031F910F9108950F931F93009196
:104420002C0310912D0320912E0330912F03009324
:10443000D2021093D3022093D4023093D5024427A2
:104440005527BA01401B510B620B730B4093CE02F0
:104450005093CF026093D0027093D1028AE792E02A
:104460000E94FA1A1F910F91089560932C03709384
:104470002D0380932E0390932F030C940D226093B1
:1044800016037093170380931803909319030895EC
:10449000909315038093140381362AEE920728F433
:1044A00081342CE9920750F002C080E69AEE43E096
:1044B000969587954A95E1F728E011C081322EE460
:1044C000920730F0969587959695879524E007C0DA
:1044D000813127E2920730F09695879522E020936C
:1044E000300308C021E0209330038032910510F49E
:1044F00080E290E0BC0160527109611588E07807A4
:10450000D0F0872F9927880F991F880F991F8E5CED
:10451000944FFC01329645915491AA27659F9001D2
:10452000649F210D3A1F06942A1F3A1F1124FC0193
:10453000859194911DC0CB01969587958C7F8E5C5B
:10454000984FFC01459154910296FC0185919491FC
:10455000FB01E770FF278E9F90018F9F300D9E9F7C
:10456000300D1124F3E036952795FA95E1F7CA014D
:10457000821B930B8436910540F44AE050E088EAB0
:1045800093E00E94CD2E84E690E0909313038093F5
:1045900012038091300380931103089590931003C8
:1045A00080930F0381362AEE920728F481342CE998
:1045B000920750F002C080E69AEE33E09695879518
:1045C0003A95E1F728E011C081322EE4920730F0ED
:1045D000969587959695879524E007C0813127E2C7
:1045E000920730F09695879522E02093300308C01B
:1045F00021E0209330038032910510F480E290E0B6
:10460000BC0160527109611588E07807D0F0872FEE
:104610009927880F991F880F991F8E5C944FFC0172
:10462000329645915491AA27659F9001649F210D70
:104630003A1F06942A1F3A1F1124FC018591949178
:104640001DC0CB01969587958C7F8E5C984FFC01A1
:10465000459154910296FC0185919491FB01E7707C
:10466000FF278E9F90018F9F300D9E9F300D11244C
:10467000E3E036952795EA95E1F7CA01821B930B93
:104680008436910540F44AE050E088EA93E00E94C5
:10469000CD2E84E690E090930E0380930D038091DD
:1046A000300380930C03089580911D0391E08927C6
:1046B00080931D0308954F925F926F927F928F9225
:1046C0009F92AF92BF92CF92DF92EF92FF92C090F3
:1046D0003603D0903703E0903803F0903903C0924E
:1046E000E602D092E702E092E802F092E9028091BD
:1046F000BF019091C001A091C101B091C20180930E
:10470000E2029093E302A093E402B093E502C81A98
:10471000D90AEA0AFB0AC092DE02D092DF02E092D6
:10472000E002F092E1026091D6027091D70280918E
:10473000D8029091D9020E9430324B015C01C7012E
:10474000B6010E9430322091B8023091B9024091F6
:10475000BA025091BB020E94E4329B01AC01C50138
:10476000B4010E942D310E94FD316093D6027093F6
:10477000D7028093D8029093D9028090D202909071
:10478000D302A090D402B090D50286169706A80650
:10479000B9064CF48092D6029092D702A092D80229
:1047A000B092D90215C04090CE025090CF026090D6
:1047B000D0027090D102641575058605970544F402
:1047C0004092D6025092D7026092D8027092D902DB
:1047D0008091DA029091DB02A091DC02B091DD02BF
:1047E00026013701481A590A6A0A7B0A4092CA020E
:1047F0005092CB026092CC027092CD02C092DA024B
:10480000D092DB02E092DC02F092DD02A091C402C1
:10481000B091C502A70196010E948C33C090D602C8
:10482000D090D702E090D802F090D9026C0D7D1D97
:104830008E1D9F1D0E9430326B017C01C301B201AD
:104840000E9430322091B4023091B5024091B602FC
:104850005091B7020E94E4329B01AC01C701B6013E
:104860000E942C310E94FD316093EC027093ED02A6
:104870008093EE029093EF0286169706A806B9067B
:104880004CF48092EC029092ED02A092EE02B09273
:10489000EF0215C0C090CE02D090CF02E090D002BF
:1048A000F090D1026C157D058E059F0544F4C092F1
:1048B000EC02D092ED02E092EE02F092EF028091D3
:1048C000EC029091ED02A091EE02B091EF02181669
:1048D00019061A061B0624F421E020931D0305C0C7
:1048E00010921D03919581959109FF90EF90DF90B3
:1048F000CF90BF90AF909F908F907F906F905F9080
:104900004F900C9442214F925F926F927F928F92C0
:104910009F92AF92BF92CF92DF92EF92FF928091DF
:104920002B038090F8029090F902A090FA02B090C8
:10493000FB02C090F402D090F502E090F602F090F5
:10494000F702882309F44DC04090FC025090FD020C
:104950006090FE027090FF02C301B2010E94FD311F
:104960007093C5026093C40220E030E048E453E451
:10497000C501B4010E94E4320E94FD317093C3026C
:104980006093C20220E030E048E453E4C701B6017E
:104990000E94E4320E94FD317093C1026093C00214
:1049A0004092BC025092BD026092BE027092BF0261
:1049B00020E030E44CE955E4C501B4010E94953192
:1049C0006093B8027093B9028093BA029093BB02CD
:1049D00020E030E44CE955E4C701B6010E94E4321E
:1049E00065C02091FC023091FD024091FE02509181
:1049F000FF0260E070E0CB010E942C312B013C01F2
:104A00000E94FD317093C5026093C40220E030E043
:104A100048E453E4C501B4010E94E4320E94FD3130
:104A20007195619571097093C3026093C20220E091
:104A300030E048E453E4C701B6010E94E4320E942A
:104A4000FD317195619571097093C1026093C00247
:104A50004092BC025092BD026092BE027092BF02B0
:104A600020E030E44CE955E4C501B4010E949531E1
:104A70009B01AC0160E070E0CB010E942C3160939F
:104A8000B8027093B9028093BA029093BB0220E0FF
:104A900030E44CE955E4C701B6010E94E4329B01C1
:104AA000AC0160E070E0CB010E942C316093B40255
:104AB0007093B5028093B6029093B702FF90EF9087
:104AC000DF90CF90BF90AF909F908F907F906F902E
:104AD0005F904F90089580912B0391E089278093F8
:104AE0002B030C9483244F925F926F927F928F924C
:104AF0009F92AF92BF92CF92DF92EF92FF920F936D
:104B00001F934B015C0129013A016701780120E004
:104B100030E0A9010E94913187FD49C020E030E0DA
:104B2000A901C301B2010E94913187FD40C020E07C
:104B300030E0A901C701B6010E94913187FD37C05D
:104B40008092FC029092FD02A092FE02B092FF02BF
:104B50004092F8025092F9026092FA027092FB02BF
:104B6000C092F402D092F502E092F602F092F702BF
:104B70000E94832493018201B501A4018AE792E097
:104B80000E94F91960912B0370E08AE792E01F916F
:104B90000F91FF90EF90DF90CF90BF90AF909F90DC
:104BA0008F907F906F905F904F900C94951B1F910A
:104BB0000F91FF90EF90DF90CF90BF90AF909F90BC
:104BC0008F907F906F905F904F900895EF92FF923B
:104BD0000F931F936093FC027093FD028093FE027B
:104BE0009093FF02E090F402F090F5020091F6023B
:104BF0001091F7022091F8023091F9024091FA02E7
:104C00005091FB020E9473251F910F91FF90EF902E
:104C10000895EF92FF920F931F939B01AC01609355
:104C2000F8027093F9028093FA029093FB02E090ED
:104C3000F402F090F5020091F6021091F7026091F3
:104C4000FC027091FD028091FE029091FF020E9491
:104C500073251F910F91FF90EF900895EF92FF92AF
:104C60000F931F937B018C016093F4027093F50204
:104C70008093F6029093F7022091F8023091F902A6
:104C80004091FA025091FB026091FC027091FD028A
:104C90008091FE029091FF020E9473251F910F9157
:104CA000FF90EF900895CF93DF93EDE2F7E06491EA
:104CB000EF01662359F0772767FD709588EA93E046
:104CC0000E94C5082196FE016491F3CF6091C40251
:104CD0007091C5024AE050E088EA93E00E94AB2E52
:104CE0006AE070E088EA93E00E94C508E8E2F7E035
:104CF0006491EF01662359F0772767FD709588EA84
:104D000093E00E94C5082196FE016491F3CF609163
:104D1000C2027091C3024AE050E088EA93E00E9428
:104D2000AB2E6AE070E088EA93E00E94C508E3E2F7
:104D3000F7E06491EF01662359F0772767FD7095DE
:104D400088EA93E00E94C5082196FE016491F3CFA2
:104D50006091C0027091C1024AE050E088EA93E09D
:104D60000E94AB2E6AE070E088EA93E00E94C508DA
:104D7000EBE1F7E06491EF01662359F0772767FDD7
:104D8000709588EA93E00E94C5082196FE0164911F
:104D9000F3CF4091DE025091DF026091E00270910A
:104DA000E1022AE030E088EA93E00E94612E6AE0A6
:104DB00070E088EA93E00E94C508E2E1F7E06491C0
:104DC000EF01662359F0772767FD709588EA93E035
:104DD0000E94C5082196FE016491F3CF4091CA025A
:104DE0005091CB026091CC027091CD022AE030E06C
:104DF00088EA93E00E94612E6AE070E088EA93E01E
:104E00000E94C508EBEFF6E06491EF01662359F0CC
:104E1000772767FD709588EA93E00E94C508219680
:104E2000FE016491F3CF6091EA027091EB024AE0D7
:104E300050E088EA93E00E94AB2E6AE070E088EAD6
:104E400093E00E94C50860E371E088EA93E00E9465
:104E5000FB2D6AE070E088EA93E0DF91CF910C943B
:104E6000C508CF93DF93E6EFF6E06491EF01662388
:104E700059F0772767FD709588EA93E00E94C5088E
:104E80002196FE016491F3CF4091FC025091FD0206
:104E90006091FE027091FF0222E030E088EA93E028
:104EA0000E94CE2F6AE070E088EA93E00E94C50875
:104EB000E0EFF6E06491EF01662359F0772767FD94
:104EC000709588EA93E00E94C5082196FE016491DE
:104ED000F3CF4091BC025091BD026091BE0270912F
:104EE000BF0222E030E088EA93E00E94CE2F6AE021
:104EF00070E088EA93E00E94C508EBEEF6E064916A
:104F0000EF01662359F0772767FD709588EA93E0F3
:104F10000E94C5082196FE016491F3CF4091F802EA
:104F20005091F9026091FA027091FB0222E030E0A8
:104F300088EA93E00E94CE2F6AE070E088EA93E06E
:104F40000E94C508E5EEF6E06491EF01662359F092
:104F5000772767FD709588EA93E00E94C50821963F
:104F6000FE016491F3CF4091B8025091B902609173
:104F7000BA027091BB0222E030E088EA93E00E941E
:104F8000CE2F6AE070E088EA93E00E94C508EFED5A
:104F9000F6E06491EF01662359F0772767FD70957D
:104FA00088EA93E00E94C5082196FE016491F3CF40
:104FB0004091F4025091F5026091F6027091F7026F
:104FC00022E030E088EA93E00E94CE2F6AE070E0B1
:104FD00088EA93E00E94C508EBEDF6E06491EF01EA
:104FE000662359F0772767FD709588EA93E00E9461
:104FF000C5082196FE016491F3CF4091B40250910F
:10500000B5026091B6027091B70222E030E088EA02
:1050100093E00E94CE2F6AE070E088EA93E00E945D
:10502000C508ECECF6E06491EF01662359F07727B0
:1050300067FD709588EA93E00E94C5082196FE01FD
:105040006491F3CF4091E6025091E7026091E8024B
:105050007091E9022AE030E088EA93E00E94612E34
:105060006AE070E088EA93E00E94C508EDEBF6E0A4
:105070006491EF01662359F0772767FD709588EA00
:1050800093E00E94C5082196FE016491F3CF409100
:10509000E2025091E3026091E4027091E5022AE09D
:1050A00030E088EA93E00E94612E6AE070E088EACE
:1050B00093E00E94C508EBEAF6E06491EF016623F5
:1050C00059F0772767FD709588EA93E00E94C5083C
:1050D0002196FE016491F3CF4091EC025091ED02D4
:1050E0006091EE027091EF022AE030E088EA93E0EE
:1050F0000E94612E6AE070E088EA93E00E94C50891
:10510000EDE9F6E06491EF01662359F0772767FD3A
:10511000709588EA93E00E94C5082196FE0164918B
:10512000F3CF60911D0370E04AE050E088EA93E01D
:105130000E94AB2E6AE070E088EA93E00E94C50806
:10514000EBE8F6E06491EF01662359F0772767FDFD
:10515000709588EA93E00E94C5082196FE0164914B
:10516000F3CF60911B0370911C034AE050E088EA82
:1051700093E00E94C72E6AE070E088EA93E00E9404
:10518000C508EDE7F6E06491EF01662359F0772753
:1051900067FD709588EA93E00E94C5082196FE019C
:1051A0006491F3CF60911A0370E04AE050E088EA1E
:1051B00093E00E94AB2E6AE070E088EA93E00E94E0
:1051C000C508EAE6F6E06491EF01662359F0772717
:1051D00067FD709588EA93E00E94C5082196FE015C
:1051E0006491F3CF60912103709122034AE050E073
:1051F00088EA93E00E94C72E6AE070E088EA93E0B4
:105200000E94C50860E371E088EA93E00E94FB2DEC
:105210006AE070E088EA93E0DF91CF910C94C508D2
:10522000AF92BF92CF92DF92EF92FF920F931F93B4
:10523000A090F802B090F902C090FA02D090FB0260
:10524000E090FC02F090FD020091FE021091FF023E
:105250001F921F928091F7028F938091F6028F9395
:105260008091F5028F938091F4028F9326EE32E0C5
:105270004CEE52E062EE72E08AE792E00E94D11BAF
:105280000F900F900F900F900F900F901F910F9114
:10529000FF90EF90DF90CF90BF90AF90089520984F
:1052A0005798559A549A5C9A5E985F9A289A1092E9
:1052B000360310923703109238031092390310927C
:1052C0003403109231035F9AEFE7F0E0808183604E
:1052D000808310BE80B78B6480BF8FB780688FBF1C
:1052E00008951F920F920FB60F9211248F939F93E0
:1052F000AF93BF93F89483B18170809335039091FD
:105300003203891761F08091360390913703A091A1
:105310003803B09139030196A11DB11D0BC08091D6
:10532000360390913703A0913803B0913903019768
:10533000A109B1098093360390933703A0933803F2
:10534000B093390381E0809331037894BF91AF919A
:105350009F918F910F900FBE0F901F901895809185
:10536000320391E0892780933203089560913603D8
:1053700070913703809138039091390308956093B9
:10538000360370933703809338039093390308955D
:105390001092A70381E08093A5031092A40361E01B
:1053A00082E10E94F63061E083E10E94F630E9EB91
:1053B000F0E080818E7F808380818D7F808382E09A
:1053C0008093B80085E48093BC000895413208F0D2
:1053D0003FC09091A7039111FCCF91E09093A70358
:1053E0002093A5032FEF20933A0310927F03240FFD
:1053F00020937E039093A6039091A603880F892B98
:105400008093A6038091A403813041F41092A403F9
:105410008091A6038093BB0085EC01C085EE80934C
:10542000BC008091A7038130E1F380917F03841752
:1054300010F440917F0320E833E0FB01D9018A2F6B
:10544000821B841718F48D918193F9CF842F0895CE
:1054500080E008950F93413208F046C09091A70371
:105460009111FCCF92E09093A7030093A5039FEFC7
:1054700090933A0310927F0340937E03FB0160E810
:1054800073E0DB019A2F961B941718F491919D936A
:10549000F9CF1092A6039091A603880F892B8093D1
:1054A000A6038091A403813041F41092A40380915B
:1054B000A6038093BB0085EC01C085EE8093BC0001
:1054C000222321F08091A7038230E1F380913A03F7
:1054D0008F3F61F080913A03803251F080913A031E
:1054E000803341F483E007C081E005C080E003C061
:1054F00082E001C084E00F910895613298F4209118
:10550000A703243089F460935C03FC018EE593E0EB
:10551000DC012A2F281B261718F421912D93F9CF8F
:1055200080E0089581E0089582E0089585ED8093FC
:10553000BC008091BC0084FDFCCF1092A7030895AD
:1055400085EC8093BC001092A70308951F920F92E0
:105550000FB60F9211242F933F934F935F936F9346
:105560007F938F939F93AF93BF93EF93FF9380911C
:10557000B900887F803609F49CC068F5883209F448
:105580005BC090F4803109F454C038F4882309F4E6
:10559000F5C0883009F44DC0F5C0883109F44CC01D
:1055A000803209F45DC0EEC0803409F468C048F46C
:1055B000803309F455C0883309F0E4C080933A037E
:1055C000A8C0803509F44FC0883509F45DC088341F
:1055D00009F0D8C0D5C0883909F4C6C0A8F4883706
:1055E00009F467C038F4883609F463C0803709F4D9
:1055F00060C0C8C0883809F4B7C0803909F45FC0FA
:10560000803809F0BFC05BC0803B09F485C038F426
:10561000803A09F466C0883A09F47EC0B3C0803C81
:1056200009F4A6C0883C09F4A3C0883B09F489C0EA
:10563000A9C08091A60310C090917F0380917E0342
:10564000981770F5E0917F0381E08E0F80937F03C0
:10565000F0E0E058FC4F80818093BB0085EC85C072
:1056600080933A038DC0E0917F0381E08E0F809399
:105670007F038091BB00F0E0E058FC4F8083909165
:105680007F0380917E036DC0E0917F0381E08E0FE8
:1056900080937F038091BB00F0E0E058FC4F808353
:1056A0008091A50381116CC081E08093A40384EAFA
:1056B00060C083E08093A70310923B03CFCF80911B
:1056C0003B03803208F050C0E0913B0381E08E0F35
:1056D00080933B038091BB00F0E0E45CFC4F80834F
:1056E000BDCF80913B03803230F4E0913B03F0E08A
:1056F000E45CFC4F10820E94962A60913B0370E0AC
:10570000E091A003F091A1038CE393E0099510923E
:105710003B030E94A02A36C084E08093A703109226
:105720005D0310925C03E091A203F091A30309953D
:1057300080915C03811105C081E080935C0310922D
:105740005E03E0915D0381E08E0F80935D03F0E0E6
:10575000E25AFC4F80818093BB0090915D03809161
:105760005C03981708F47ACF85E88093BC000AC0E0
:1057700085EC8093BC001092A70304C010923A03FA
:105780000E94962AFF91EF91BF91AF919F918F91C7
:105790007F916F915F914F913F912F910F900FBE2D
:1057A0000F901F901895FC01818D228D90E0805CF8
:1057B0009F4F821B91098F7399270895FC01918D4A
:1057C000828D981731F0828DE80FF11D858D90E064
:1057D00008958FEF9FEF0895FC01918D828D9817AA
:1057E00061F0828DDF01A80FB11D5D968C91928DC5
:1057F0009F5F9F73928F90E008958FEF9FEF0895C2
:1058000080E79DE2892B49F080E090E0892B29F028
:105810000E94702D81110C9400000895FC01848D6C
:10582000DF01A80FB11DA35ABF4F2C91848D90E0CA
:1058300001968F739927848FA689B7892C93A089A5
:10584000B1898C9180648C93938D848D981306C05C
:105850000288F389E02D80818F7D80830895CF9326
:10586000DF93EC01888D8823C9F0EA89FB89808168
:1058700085FD05C0A889B9898C9186FD0FC00FB63A
:1058800007FCF5CF808185FFF2CFA889B9898C917B
:1058900085FFEDCFCE010E940E2CE7CFDF91CF9197
:1058A0000895CF92DF92FF920F931F93CF93DF93D0
:1058B0001F92CDB7DEB76C0181E0D60158968C936C
:1058C00058975B969C915B975C968C915C9798132C
:1058D00007C05096ED91FC915197808185FD2EC0B7
:1058E000F601038D10E00F5F1F4F0F731127F02E8D
:1058F000F601848DF81211C00FB607FCF9CFD6015E
:105900005096ED91FC915197808185FFF1CFC601B2
:1059100069830E940E2C6981EBCF838DE80FF11D06
:10592000E35AFF4F6083D6015B960C935B975296C8
:10593000ED91FC915397808180620CC0D601569600
:10594000ED91FC91579760835096ED91FC915197A2
:1059500080818064808381E090E00F90DF91CF911F
:105960001F910F91FF90DF90CF900895BF92CF923B
:10597000DF92EF92FF92CF93DF93EC016A017B01FC
:10598000B22EE889F98982E08083411581EE5807BB
:1059900061057105A1F060E079E08DE390E0A70179
:1059A00096010E945F3321503109410951095695F2
:1059B000479537952795211580E1380798F0E889B4
:1059C000F989108260E874E88EE190E0A701960101
:1059D0000E945F332150310941095109569547957D
:1059E00037952795EC85FD853083EE85FF852083EF
:1059F000188EEC89FD89B082EA89FB8980818061FB
:105A00008083EA89FB89808188608083EA89FB89B9
:105A1000808180688083EA89FB8980818F7D808393
:105A2000DF91CF91FF90EF90DF90CF90BF900895DE
:105A30001F920F920FB60F9211242F938F939F9363
:105A4000EF93FF93E091B803F091B9038081E09167
:105A5000BE03F091BF0382FD12C090818091C1030B
:105A60008F5F8F732091C203821751F0E091C103C1
:105A7000F0E0E855FC4F958F8093C10301C0808111
:105A8000FF91EF919F918F912F910F900FBE0F90EB
:105A90001F9018951F920F920FB60F9211242F93FB
:105AA0003F934F935F936F937F938F939F93AF93A6
:105AB000BF93EF93FF9388EA93E00E940E2CFF912F
:105AC000EF91BF91AF919F918F917F916F915F9176
:105AD0004F913F912F910F900FBE0F901F901895EF
