:100000000C9463000C94F3080C9420090C948B005E
:100010000C948B000C948B000C948B000C948B0034
:100020000C948B000C948B000C948B000C948B0024
:100030000C948B000C948B000C948B000C948B0014
:100040000C945C090C948B000C94D0050C94530612
:100050000C948B000C948B000C948B000C94690412
:100060000C948B000C948B000000000024002700EF
:100070002A0000000000250028002B0000000000DE
:1000800023002600290004040404040404040202DA
:100090000202020203030303030301020408102007
:1000A0004080010204081020010204081020000012
:1000B0000007000201000003040600000000000029
:1000C00000006501060611241FBECFEFD8E0DEBF99
:1000D000CDBF11E0A0E0B1E0EEE6FAE102C005908C
:1000E0000D92AC37B107D9F712E0ACE7B1E001C02F
:1000F0001D92A235B107E1F710E0C6ECD0E004C0D4
:100100002297FE010E94310DC23CD107C9F70E941F
:100110004D090C94350D0C9400000F931F9308EAC1
:1001200011E0C80160E071E00E94C3070E94B802BC
:10013000AB01BC01C8012AE030E00E94AF07C80152
:100140006FE071E00E94C3070E94A702AB01BC01EF
:10015000C80122E030E00E94AA08C8010E94A3065C
:10016000C8016EE171E00E94C3070E94FF01AB016C
:10017000BC01C8012AE030E00E94AF07C8016FE26D
:1001800071E00E94C3070E94EE01AB01BC01C801EF
:1001900022E030E00E94AA08C8010E94A306C8011C
:1001A0006AE371E00E94C3070E946001BC01C801BC
:1001B0004AE050E00E945207C8010E94A306C8010D
:1001C00065E471E00E94C3070E94C102AB01BC015B
:1001D000C8012AE030E00E94AF071F910F910895F7
:1001E00088EA91E00E942405181619060CF045C013
:1001F00088EA91E00E9440058235E1F083352CF4D5
:10020000833441F08434C9F512C0833621F1893634
:10021000A1F51EC080917C0191E0892780937C012B
:1002200088EA91E06EE471E00E94BD0826C00E9459
:10023000CA0223C088EA91E00E9440058B3211F483
:1002400081E003C08D32C9F480E00E94520315C0E2
:100250000E948D0012C088EA91E00E944005853618
:1002600019F40E94DF0109C0843639F40E94A0020B
:1002700004C088EA91E00E94400588EA91E00E946B
:10028000240518161906ACF308950E94F000809119
:100290007C01882311F00E94D802089588EA91E039
:1002A00040E052EC61E070E026E00E94C0040E9451
:1002B000C1010E94BD030E9474020E948D00089536
:1002C000809187019091880108958DE791E06BE01E
:1002D0004AE029E00E9434040895CF93DF93EC01B3
:1002E00060918001709181016817790748F48DE76A
:1002F00091E00E94040480918001909181010FC0DF
:1003000060918201709183018617970768F48DE7E9
:1003100091E00E9404048091820190918301909366
:1003200088018093870109C08DE791E0BE010E949A
:100330000404D0938801C0938701DF91CF91089581
:100340009C018091860190E0281739072CF080915C
:1003500080019091810112C080918401909185016A
:10036000AC01249FC001259F900D349F900D112456
:100370002091820130918301820F931F0E946D01B1
:1003800008958DE791E00E94F40388E191E0909355
:1003900081018093800188EC90E0909383018093A9
:1003A00082018AE08093860188E090E09093850145
:1003B0008093840188EC90E00E946D010895809103
:1003C0008F0191E0892780938F01882319F0909302
:1003D000900108958FEF80939001089560918901B5
:1003E00070918A0180918B0190918C010E94D30BB6
:1003F00020E030E048E452E40E94380B0895609118
:10040000890170918A0180918B0190918C010895EE
:10041000F89482E00E947C0A20E0892B09F021E018
:1004200020938D0183E00E947C0A20E0892B09F053
:1004300021E020938E0190918D0180918E01609139
:1004400090012091890130918A0140918B01509156
:100450008C01981729F4260F311D411D511D04C030
:10046000261B3109410951092093890130938A01E2
:1004700040938B0150938C0178940895F89482E016
:100480000E947C0A20E0892B09F021E020938D0155
:1004900083E00E947C0A20E0892B09F021E0209370
:1004A0008E0190918D0180918E016091900120913B
:1004B000890130918A0140918B0150918C019817EC
:1004C00029F0260F311D411D511D04C0261B310985
:1004D000410951092093890130938A0140938B018E
:1004E00050938C017894089582E060E00E94E909BD
:1004F00082E060E00E94E90982E061E00E94280A4F
:1005000083E061E00E94280A80E06EE372E041E04F
:1005100050E00E94D00881E068E072E041E050E0E5
:100520000E94D0081092890110928A0110928B01CA
:1005300010928C0181E080938F0180939001089547
:100540008091A10191E089278093A1010895609194
:1005500091017091920180919301909194010E9478
:10056000D30B20E030E048EC52E40E94380B0895B1
:100570006091910170919201809193019091940109
:1005800008956091990170919A0180919B019091D9
:100590009C01089584E061E00E94280A08958DE09E
:1005A00060E00E94280A8DE061E00E94280A089518
:1005B0000E94FF01609395017093960180939701CB
:1005C00090939801660F771F881F991F20919101C2
:1005D000309192014091930150919401621B730BF1
:1005E000840B950B6093990170939A0180939B0102
:1005F00090939C0197FF07C09095809570956195A9
:100600007F4F8F4F9F4F70939E0160939D01CB0151
:100610000E94A00120919D0130919E01C901A0E09E
:10062000B0E00A97A105B10534F481E08093A201FE
:1006300080E896E905C081E08093A20188EE93E00E
:100640009093A4018093A3012230310550F1F894D6
:1006500084E060E00E94280A8091990190919A01BB
:10066000A0919B01B0919C01181619061A061B0651
:1006700034F46091A10181E0682785E003C085E042
:100680006091A1010E94280A0E94CF027894809173
:10069000A201882331F08091A3019091A4010E94CE
:1006A000A4090895CF93DF93882331F06091A101CD
:1006B00081E0682785E003C085E06091A1010E9488
:1006C000280AC0E0D0E00E94CF0280E49BE40E94B0
:1006D000A40921968CE0C038D807A9F7DF91CF9103
:1006E000089588E00E947C0A60E0892B09F061E0AF
:1006F0006093A00184E00E94280A0895F89484E0A1
:1007000060E00E94280A8CE00E947C0A20E0892B8D
:1007100009F021E020939F01222389F085E0609178
:10072000A1010E94280A8091910190919201A091CB
:100730009301B09194010196A11DB11D12C0609169
:10074000A10181E0682785E00E94280A809191013B
:1007500090919201A0919301B09194010197A10908
:10076000B1098093910190939201A0939301B0936A
:1007700094010E94CF02789408958CE060E00E947A
:10078000E90987E060E00E94E90988E060E00E94F2
:10079000E90985E061E00E94E9098DE061E00E94DD
:1007A000E90984E061E00E94E9098DE061E00E94CE
:1007B000280A85EA91E06EE773E043E00E94560460
:1007C0001092910110929201109293011092940153
:1007D00081E08093A10180E896E99093A401809341
:1007E000A3010E94710308950F931F938C01FC01D4
:1007F000828160E00E94280AF801818160E00E9405
:10080000280A1F910F910895FF920F931F93CF9382
:10081000DF93EC018B010E94F403FF2411FF03C05E
:10082000888161E002C0888160E00E94280A898195
:1008300061E00E94280A898160E00E94280AF394FE
:100840008CE0F81619F0000F111FE8CF8A8161E0E3
:100850000E94280A898160E00E94280ADF91CF91D6
:100860001F910F91FF900895DF92EF92FF920F93E7
:100870001F938C01F62EE42ED22E862F61E00E946B
:10088000E9098E2D61E00E94E9098D2D61E00E9449
:10089000E909F801F082E182D282C8010E94F403E2
:1008A0001F910F91FF90EF90DF9008955F9A7093E2
:1008B000A7016093A601EFE7F0E080818360808369
:1008C00010BE80B78864842B80BF8FB780688FBFCD
:1008D00008951F920F920FB60F9211242F933F93FA
:1008E0004F935F936F937F938F939F93AF93BF9338
:1008F000EF93FF93E091A601F091A7010995FF9175
:10090000EF91BF91AF919F918F917F916F915F9187
:100910004F913F912F910F900FBE0F901F90189500
:10092000DC015C968C915C97FD01E80FF11DE35AA8
:10093000FF4F20815C968C915C9790E001968F73BD
:1009400090705C968C935C975696ED91FC915797BE
:1009500020835096ED91FC91519780818064808333
:100960005B969C915B975C968C915C97981739F499
:100970005296ED91FC91539780818F7D80830895ED
:10098000DF92EF92FF920F931F93CF93DF93EC01CF
:100990007A018B01D22EE889F98982E08083403088
:1009A00081EE580780E0680780E07807A1F060E0FA
:1009B00079E08DE390E0A80197010E940D0D215090
:1009C000304040405040569547953795279580E1F7
:1009D0002030380798F0E889F989108260E874E8D7
:1009E0008EE190E0A80197010E940D0D215030404A
:1009F000404050405695479537952795EC85FD85A5
:100A00003083EE85FF852083188EEC89FD89D082A6
:100A1000EA89FB89808180618083EA89FB89808102
:100A200088608083EA89FB89808180688083EA8985
:100A3000FB8980818F7D8083DF91CF911F910F9102
:100A4000FF90EF90DF900895FC01218D828D30E0C2
:100A5000205C3F4F281B31092F733070C901089566
:100A6000FC01918D828D981719F42FEF3FEF06C08E
:100A7000828DE80FF11D858D282F30E0C901089582
:100A8000DC0159969C9159975A968C915A979817D0
:100A900019F42FEF3FEF10C05A968C915A97FD0131
:100AA000E80FF11D958D5A968C915A978F5F8F7331
:100AB0005A968C93292F30E0C9010895CF93DF9384
:100AC000EC01888D882361F419C08C9185FF0AC0E0
:100AD000E889F989808185FF05C0CE010E949004D4
:100AE000AA89BB898C9185FD05C0E889F989808137
:100AF00086FD04C00FB607FEE8CFF4CFDF91CF919B
:100B000008950F931F93CF93DF93EC01062F9B8DD6
:100B10008C8D981791F5E889F989808185FF2DC022
:100B2000EE89FF896083E889F98980818064808308
:100B30001DC00FB607FC08C0E889F989808185FFD0
:100B400003C0CE010E9490048C8D181791F38B8DF9
:100B5000FE01E80FF11DE35AFF4F00831B8FEA8966
:100B6000FB8980818062808381E0888F81E090E0D2
:100B7000DF91CF911F910F9108951B8D1F5F1F7300
:100B8000E3CF89E496E0892B51F080E090E0892B57
:100B900031F00E944906882311F00E940000089558
:100BA0001F920F920FB60F9211242F938F939F9342
:100BB000EF93FF93E091B801F091B901808182FD3C
:100BC00016C0E091BE01F091BF0120819091C1015A
:100BD0009F5F9F738091C201981771F0E091C101EE
:100BE000F0E0E855FE4F258F9093C10105C0E091DC
:100BF000BE01F091BF01E081FF91EF919F918F9134
:100C00002F910F900FBE0F901F9018951092AB016F
:100C10001092AA0188EE93E0A0E0B0E08093AC01CE
:100C20009093AD01A093AE01B093AF0180E791E046
:100C30009093A9018093A80185EC90E09093B50171
:100C40008093B40184EC90E09093B7018093B60157
:100C500080EC90E09093B9018093B80181EC90E032
:100C60009093BB018093BA0182EC90E09093BD0118
:100C70008093BC0186EC90E09093BF018093BE010D
:100C80001092C1011092C2011092C3011092C401CE
:100C9000089588EA91E00E94240520E0892B09F05C
:100CA00021E0822F08951F920F920FB60F92112408
:100CB0002F933F934F935F936F937F938F939F9364
:100CC000AF93BF93EF93FF9388EA91E00E94900463
:100CD000FF91EF91BF91AF919F918F917F916F9114
:100CE0005F914F913F912F910F900FBE0F901F90EA
:100CF0001895CF92DF92EF92FF920F931F93CF93AD
:100D0000DF937C016B018A01C0E0D0E00FC0D60107
:100D10006D916D01D701ED91FC910190F081E02D75
:100D2000C7010995C80FD91F0150104001151105C1
:100D300071F7CE01DF91CF911F910F91FF90EF904E
:100D4000DF90CF900895EF92FF920F931F938C0145
:100D5000DC01ED91FC910190F081E02D6DE00995B1
:100D60007C01D801ED91FC910190F081E02DC8014A
:100D70006AE009959C012E0D3F1DC9011F910F913D
:100D8000FF90EF900895CF93DF93EC01611571050B
:100D900019F420E030E00FC0DB010D900020E9F7EE
:100DA0001197A61BB70BE881F9810280F381E02D32
:100DB000AD0109959C01C901DF91CF9108954F9232
:100DC0005F927F928F929F92AF92BF92CF92DF926B
:100DD000EF92FF920F931F93DF93CF93CDB7DEB7C0
:100DE000A1970FB6F894DEBF0FBECDBF2C01742EB5
:100DF000CB01223008F42AE019A231E2C32ED12C13
:100E0000CC0EDD1E822E9924AA24BB24672D752FBB
:100E1000A50194010E940D0D79018A01C801B70155
:100E2000A50194010E94EE0C472D461B0894C108B1
:100E3000D1084A3014F4405D01C0495CF60140839A
:100E4000E114F1040105110521F07E2C5F2DC8018C
:100E5000DDCFC201B6010E94C306A1960FB6F89479
:100E6000DEBF0FBECDBFCF91DF911F910F91FF90DD
:100E7000EF90DF90CF90BF90AF909F908F907F903A
:100E80005F904F900895DC012115310541F4ED91FB
:100E9000FC910190F081E02D642F099508950E9446
:100EA000DF060895CF92DF92EF92FF920F931F9388
:100EB0006C017B019A0100E010E0B801A7010E94DB
:100EC00043078C01C6010E94A306080F191FC80121
:100ED0001F910F91FF90EF90DF90CF900895CF92E8
:100EE000DF92EF92FF920F931F93CF93DF93EC016A
:100EF0006A017B012115310541F4E881F9810190F6
:100F0000F081E02D642F09951FC02A303105D1F4FE
:100F100077FF17C0E881F9810190F081E02D6DE243
:100F200009958C0144275527BA014C195D096E09B2
:100F30007F09CE012AE00E94DF069801280F391FA1
:100F400004C02AE00E94DF069C01C901DF91CF9115
:100F50001F910F91FF90EF90DF90CF900895EF9247
:100F6000FF920F931F937C010E946F078C01C701B2
:100F70000E94A3069C01200F311FC9011F910F91F0
:100F8000FF90EF9008950E94C30608957F928F927C
:100F90009F92AF92BF92CF92DF92EF92FF920F9308
:100FA0001F93CF93DF934C017A018B01722ECB01FB
:100FB000BA01A80197010E94EA0C882321F0C4011C
:100FC0006EE571E021C0C0E0D0E057016801E8940F
:100FD000D7F8C601B5012FEF3FEF4FE75FE70E945B
:100FE000EA0C882351F4C601B5012FEF3FEF4FE71C
:100FF0005FE70E94340B181614F0C1E0D0E021978F
:1010000039F0C40162E671E00E94C306EC0193C0AE
:10101000C801B7012FEF3FEF4FE75FE40E94830C59
:10102000181654F0C801B7012FEF3FEF4FE75FEC00
:101030000E94340B882324F4C40166E671E0E4CFF7
:10104000C801B70120E030E040E050E00E94340BDE
:1010500087FD03C0C0E0D0E00EC0D401ED91FC914B
:101060000190F081E02DC4016DE20995EC0117FBC0
:10107000109517F9109520E030E040E05FE3DD24A3
:101080000BC0CA01B90120E030E040E251E40E9407
:10109000380B9B01AC01D394D71498F3C801B70166
:1010A0000E94D00A5B016C010E94A50B7B018C01A0
:1010B000C401B801A7012AE030E00E944307C80F2D
:1010C000D91F772039F0C4016AE671E00E94C30697
:1010D000C80FD91FC801B7010E94D10B9B01AC01F9
:1010E000C601B5010E94CF0A24C020E030E040E2F2
:1010F00051E40E94870C7B018C010E94A00B5B01D4
:101100006C01CC24B7FCC094DC2CC401B601A50151
:101110002AE030E00E946F07C80FD91FC601B50151
:101120000E94D30B9B01AC01C801B7010E94CF0AFA
:101130007A947720D1F6CE01DF91CF911F910F9154
:10114000FF90EF90DF90CF90BF90AF909F908F90E7
:101150007F900895EF92FF920F931F937C010E945E
:10116000C6078C01C7010E94A306080F191FC801FA
:101170001F910F91FF90EF900895EF92FF920F93C0
:101180001F937C010E94C3068C01C7010E94A30625
:10119000080F191FC8011F910F91FF90EF9008953C
:1011A000823000F5E82FF0E0EE0FFF1FEB5BFD4F04
:1011B00071836083882319F08130A1F408C0809185
:1011C00069008C7F842B80936900E89A0895809150
:1011D0006900440F551F440F551F837F842B809354
:1011E0006900E99A08951F920F920FB60F92112489
:1011F0002F933F934F935F936F937F938F939F931F
:10120000AF93BF93EF93FF93809145029091460275
:10121000892B29F0E0914502F09146020995FF9152
:10122000EF91BF91AF919F918F917F916F915F915E
:101230004F913F912F910F900FBE0F901F901895D7
:101240001F920F920FB60F9211242F933F934F933B
:101250005F936F937F938F939F93AF93BF93EF931E
:10126000FF938091470290914802892B29F0E091E9
:101270004702F09148020995FF91EF91BF91AF911C
:101280009F918F917F916F915F914F913F912F919E
:101290000F900FBE0F901F901895CF93DF930E9471
:1012A000AE090E944E01C1ECD5E00E944501209795
:1012B000E1F30E94C105F9CF1F920F920FB60F9272
:1012C00011242F933F938F939F93AF93BF9380915C
:1012D0004D0290914E02A0914F02B0915002309178
:1012E00051020196A11DB11D232F2D5F2D3720F036
:1012F0002D570196A11DB11D2093510280934D02DF
:1013000090934E02A0934F02B093500280914902F5
:1013100090914A02A0914B02B0914C020196A11DFE
:10132000B11D8093490290934A02A0934B02B0935F
:101330004C02BF91AF919F918F913F912F910F9050
:101340000FBE0F901F901895019739F0880F991FC5
:10135000880F991F02970197F1F70895789484B543
:10136000826084BD84B5816084BD85B5826085BDA1
:1013700085B5816085BDEEE6F0E080818160808387
:10138000E1E8F0E01082808182608083808181606A
:101390008083E0E8F0E0808181608083E1EBF0E031
:1013A000808184608083E0EBF0E0808181608083D5
:1013B000EAE7F0E0808184608083808182608083BE
:1013C0008081816080838081806880831092C100E9
:1013D0000895CF93DF93482F50E0CA0186569F4F60
:1013E000FC0134914A575F4FFA018491882369F1D7
:1013F00090E0880F991FFC01E859FF4FA591B49127
:10140000FC01EE58FF4FC591D491662351F42FB7DC
:10141000F8948C91932F909589238C9388818923BC
:101420000BC0623061F42FB7F8948C91932F909594
:1014300089238C938881832B88832FBF06C09FB715
:10144000F8948C91832B8C939FBFDF91CF9108955B
:10145000482F50E0CA0182559F4FFC012491CA01D8
:1014600086569F4FFC0194914A575F4FFA01349181
:10147000332309F440C0222351F1233071F024308A
:1014800028F42130A1F0223011F514C02630B1F03B
:101490002730C1F02430D9F404C0809180008F77C8
:1014A00003C0809180008F7D8093800010C084B540
:1014B0008F7702C084B58F7D84BD09C08091B00054
:1014C0008F7703C08091B0008F7D8093B000E32FB1
:1014D000F0E0EE0FFF1FEE58FF4FA591B4912FB72C
:1014E000F894662321F48C919095892302C08C9105
:1014F000892B8C932FBF0895682F70E0CB01825504
:101500009F4FFC012491CB0186569F4FFC014491D3
:101510006A577F4FFB019491992319F420E030E042
:101520003CC0222351F1233071F0243028F42130C3
:10153000A1F0223011F514C02630B1F02730C1F0EF
:101540002430D9F404C0809180008F7703C080914B
:1015500080008F7D8093800010C084B58F7702C09B
:1015600084B58F7D84BD09C08091B0008F7703C0A2
:101570008091B0008F7D8093B000892F90E0880F1C
:10158000991F84589F4FFC01A591B4918C9120E044
:1015900030E0842311F021E030E0C9010895505873
:1015A000BB27AA270ED075C166D130F06BD120F0D1
:1015B00031F49F3F11F41EF45BC10EF4E095E7FB9C
:1015C00051C1E92F77D180F3BA17620773078407F7
:1015D000950718F071F49EF58FC10EF4E0950B2E6F
:1015E000BA2FA02D0B01B90190010C01CA01A00175
:1015F0001124FF27591B99F0593F50F4503E68F1D0
:101600001A16F040A22F232F342F4427585FF3CF10
:10161000469537952795A795F0405395C9F77EF4E1
:101620001F16BA0B620B730B840BBAF09150A1F02A
:10163000FF0FBB1F661F771F881FC2F70EC0BA0FB0
:10164000621F731F841F48F4879577956795B79538
:10165000F7959E3F08F0B3CF9395880F08F0992730
:10166000EE0F979587950895D9D008F481E00895F5
:101670000CD00FC107D140F0FED030F021F45F3F15
:1016800019F0F0C0511139C1F3C014D198F3992366
:10169000C9F35523B1F3951B550BBB27AA27621736
:1016A0007307840738F09F5F5F4F220F331F441F7B
:1016B000AA1FA9F333D00E2E3AF0E0E830D09150B3
:1016C0005040E695001CCAF729D0FE2F27D0660FA0
:1016D000771F881FBB1F261737074807AB07B0E8DF
:1016E00009F0BB0B802DBF01FF2793585F4F2AF0F5
:1016F0009E3F510568F0B6C000C15F3FECF3983ED5
:10170000DCF3869577956795B795F7959F5FC9F751
:10171000880F911D9695879597F90895E1E0660FDA
:10172000771F881FBB1F621773078407BA0720F053
:10173000621B730B840BBA0BEE1F88F7E0950895BC
:1017400004D06894B111D9C00895BCD088F09F57D7
:1017500090F0B92F9927B751A0F0D1F0660F771FFD
:10176000881F991F1AF0BA95C9F712C0B13081F0DD
:10177000C3D0B1E00895C0C0672F782F8827B85F25
:1017800039F0B93FCCF3869577956795B395D9F73E
:101790003EF490958095709561957F4F8F4F9F4F48
:1017A0000895E89409C097FB3EF490958095709554
:1017B00061957F4F8F4F9F4F9923A9F0F92F96E99D
:1017C000BB279395F695879577956795B795F11112
:1017D000F8CFFAF4BB0F11F460FF1BC06F5F7F4FAF
:1017E0008F4F9F4F16C0882311F096E911C07723C1
:1017F00021F09EE8872F762F05C0662371F096E8CA
:10180000862F70E060E02AF09A95660F771F881F98
:10181000DAF7880F9695879597F90895990F00083C
:10182000550FAA0BE0E8FEEF16161706E807F907B2
:10183000C0F012161306E407F50798F0621B730B4D
:10184000840B950B39F40A2661F0232B242B252BCE
:1018500021F408950A2609F4A140A6958FEF811D71
:10186000811D089597F99F6780E870E060E0089512
:101870009FEF80EC089500240A94161617061806A8
:101880000906089500240A94121613061406050684
:101890000895092E0394000C11F4882352F0BB0F15
:1018A00040F4BF2B11F460FF04C06F5F7F4F8F4F78
:1018B0009F4F089557FD9058440F551F59F05F3FB3
:1018C00071F04795880F97FB991F61F09F3F79F062
:1018D00087950895121613061406551FF2CF4695E4
:1018E000F1DF08C0161617061806991FF1CF869566
:1018F0007105610508940895E894BB27662777274A
:10190000CB0197F908958ADF08F48FEF08950BD083
:10191000C0CFB1DF28F0B6DF18F0952309F0A2CFD1
:10192000A7CF1124EACFC6DFA0F3959FD1F3950F7F
:1019300050E0551F629FF001729FBB27F00DB11D53
:10194000639FAA27F00DB11DAA1F649F6627B00DE3
:10195000A11D661F829F2227B00DA11D621F739FCC
:10196000B00DA11D621F839FA00D611D221F749FDA
:101970003327A00D611D231F849F600D211D822F21
:10198000762F6A2F11249F5750408AF0E1F0882368
:101990004AF0EE0FFF1FBB1F661F771F881F915075
:1019A0005040A9F79E3F510570F05CCFA6CF5F3F36
:1019B000ECF3983EDCF3869577956795B795F795A8
:1019C000E7959F5FC1F7FE2B880F911D9695879530
:1019D00097F9089523DF880B990B0895629FD00132
:1019E000739FF001829FE00DF11D649FE00DF11DDA
:1019F000929FF00D839FF00D749FF00D659FF00D89
:101A00009927729FB00DE11DF91F639FB00DE11D75
:101A1000F91FBD01CF0111240895A1E21A2EAA1BBE
:101A2000BB1BFD010DC0AA1FBB1FEE1FFF1FA2178E
:101A3000B307E407F50720F0A21BB30BE40BF50B8B
:101A4000661F771F881F991F1A9469F76095709514
:101A5000809590959B01AC01BD01CF010895EE0FDB
:0E1A6000FF1F0590F491E02D0994F894FFCF3C
:101A6E0050756C736520436F756E74203A20004478
:101A7E00657374696E6174696F6E203A2000456EED
:101A8E00636F64657220436F756E74203A20005048
:101A9E006F7369746F6E203A2000566F6C746167B5
:101AAE0065203A20004572726F72203A200053680A
:101ABE0069667420436C6F73654C6F6F70006E6156
:101ACE006E00696E66006F7666002E0000000000E4
:0C1ADE00810579062405400530055E05F1
:00000001FF
